:0400000068EF00F0B5
:100008005E82FACF27F0FBCF28F0E9CF29F0EACFBC
:100018002AF0E1CF2BF0E2CF2CF0D9CF2DF0DACFB8
:100028002EF0F3CF2FF0F4CF30F0F6CF31F0F7CF3A
:1000380032F0F8CF33F0F5CF34F09EA21BD09E9269
:100048000001D84BD92B400E0001D8190EE19C0EA7
:100058000001D919D8A409D0000E55EC16F0369233
:10006800000E0001D96F000ED86F36806AEC00F0E0
:10007800F4EC0FF0A4BE56EC13F0F2A007D0000E7B
:1000880081B2010E356EF5EC17F0F29034C0F5FF31
:1000980033C0F8FF32C0F7FF31C0F6FF30C0F4FFBD
:1000A8002FC0F3FF2EC0DAFF2DC0D9FF2CC0E2FF0E
:1000B8002BC0E1FF2AC0EAFF29C0E9FF28C0FBFFE7
:1000C80027C0FAFF5E921100F7EF13F0394A3A2A77
:1000D8003B4A3C2A19D336B608D03686000E3A6E0B
:1000E800000E396E11EC18F0120036A405D0C80EB7
:1000F80039183A10D8B407D036B41200FA0E3918A5
:100108003A10D8A41200020E536E3696000E3A6EBC
:10011800000E396E0EEC18F0120036B60ED0368688
:1001280036A408D00001150ED890CF37D037D13774
:10013800E82EFAD7000E466E1200410E39183A1012
:10014800D8A406D00001D1BF120011EC18F012009B
:100158004B0E39183A10D8A403D011EC18F012003D
:10016800640E39183A10D8A412000001D890CF377D
:10017800D037D137462A0EEC18F036A408D0030E33
:100188004618D8A404D0040E536E36960DD036B453
:100198000BD0180E4618D8A407D0030E536E369607
:1001A800000E476E050E496E000E3A6E000E396E4F
:1001B8001200020E36EC15F001C014F002C015F062
:1001C8000CD13A5004E1420E395CD8A006D0475011
:1001D800D8A403D0000E496E12004750D8B41200BC
:1001E800000E496E12003DC012F03EC013F0121E00
:1001F800131E124A132A1450122615501322370EB2
:10020800125C010E1358D8A00AD0010E496E37822D
:10021800000E3C6E000E3B6E010E486E12003A5006
:1002280004E17E0E395CD8A01200040E496E12005B
:100238003DC012F03EC013F0121E131E124A132ABC
:100248001450122615501322370E125C010E135843
:10025800D8B0482A3DC012F03EC013F0121E131E3B
:10026800124A132A14501226155013226D0E125CCE
:10027800020E1358D8A003D0040E496E3784500ECE
:100288003B183C10D8A41200460E486005D0898C53
:10029800040E496E37801200020E496E000E3C6E45
:1002A800000E3B6E000E0001D36F000ED26F000EE1
:1002B800436E000E486E12003DC012F03EC013F0AF
:1002C800121E131E124A132A1450122615501322F6
:1002D800370E125C010E1358D8B0482A3C0E3B1852
:1002E8003C10D8A412000001D890D237D337090E99
:1002F800486403D0320E486404D0040E496E378037
:1003080005D01E0E486002D00001D281432A100E8B
:100318004318D8A402D0030E496E000E486E000E92
:100328003C6E000E3B6E12003DC012F03EC013F052
:10033800121E131E124A132A145012261550132285
:10034800370E125C010E1358D8B0482A3DC012F07F
:100358003EC013F0121E131E124A132A14501226FE
:10036800155013226D0E125C020E1358D8A003D03C
:10037800040E496E37846E0E3B183C10D8A4120048
:10038800640E486001D03780040E496E1200140EC6
:10039800391803E1050E3A18D8A41200D2C007F0A4
:1003A800D3C008F04728096EA7EC05F036A403D09F
:1003B800040E536E04D0060E536E11EC18F0000EA6
:1003C8003A6E000E396E000E0001D36F000ED26F28
:1003D800472A37923790379412004950000AD8B408
:1003E80002D7010AD8B424D7030AD8B465D7010ABA
:1003F800D8B49AD7070AD8B4CAD7010AD8A4120021
:10040800E0D636B604D03686000E476E12000F0EC0
:100418004718D8A40ED036AE07D0060E536E3696BF
:10042800369E11EC18F01200050E536E000E476E42
:100438001200030E536E050E496E1200020E391893
:100448003A10D8A416D038BA120036AC36A205D065
:1004580036AA36B802D0898C120036BC02D036A82B
:1004680002D08A86120036A202D036AA12008B80E9
:100478001200F40E391802E13A04D8A41200040E4E
:10048800536E368E000E3A6E000E396E38BA120070
:10049800899C8A968B9012002C0E391802E13A0436
:1004A800D8A41200070E536E000E3A6E000E396E75
:1004B8000EEC18F0120036B618D0368638BA0ED0C0
:1004C80036AC36B802D036B204D036A404D08A8608
:1004D80005D036B402D08B8001D0898C8DEC17F012
:1004E800000E406E000E3F6E12003A5004E1F50E09
:1004F800395CD8A009D0405007E1060E3F5CD8B05F
:1005080003D083EC14F01200F40E391802E13A0417
:10051800D8A412003696090E536E000E456E000ED2
:100528003A6E000E396E38BA1200899C8A968B9002
:100538001200394A3A2A4FD0000E3A6E000E396E30
:10054800040E446E12004C0E391803E19A0E3A1844
:10055800D8A41200060E446E8A861200400E39187E
:1005680003E19C0E3A18D8A41200050E446E8A9630
:10057800000E3A6E000E396E1200B80E391803E1FB
:10058800880E3A18D8A41200010E446E12000EEC20
:1005980018F0020E446E1200400E391803E19C0E4A
:1005A8003A18D8A412001CEC0CF0030E446E8A868C
:1005B8001200340E391803E19E0E3A18D8A412001E
:1005C8008A96000E446E38AC03D011EC18F0120075
:1005D800000E536E12004450000AD8B4ADD7010A79
:1005E800D8B4D5D7030AD8B4D7D7010AD8B4E1D735
:1005F800070AD8B4A8D7010AD8B4BFD7030AD8A421
:100608001200ACD7394A3A2A74D0E80E391803E1F7
:10061800030E3A18D8A4120036A404D0B3EC16F08E
:100628001CEC0CF036AA0DD04A50D8A40AD0000E03
:100638003A6E000E396E010E456E11EC18F08C9E64
:10064800120038AC07D011EC18F0080E536E000EEB
:10065800446E1200000E536E1200B00E391812E1EB
:100668009A0E3A18D8A40ED0B3EC16F036AA02D0D7
:10067800898C1200000E536E000E456E8C8E0EECA7
:1006880018F01200400E39185FE19C0E3A18D8A4F1
:100698001200899C000E3A6E000E396E030E456EEC
:1006A8001200B00E391815E19A0E3A18D8A411D0D4
:1006B800B3EC16F036AA05D00F0E4A6002D08B8034
:1006C8001200000E536E000E456E8C8E0EEC18F064
:1006D8001200400E391838E19C0E3A18D8A41200BE
:1006E8008B90010E456E4A2A000E3A6E000E396E46
:1006F80012004550000AD8B488D7010AD8B4ADD73B
:10070800020AD8A41200CDD75350000AD8B4120058
:10071800010AD8B4E0D4030AD8B4FFD4010AD8B483
:1007280048D5070AD8B46DD6010AD8B487D6030AC3
:10073800D8B4B2D6010AD8B4BED60F0AD8B4F9D6FE
:10074800010AD8A412005ED712000101806F000EC2
:1007580001017E6F000E01017D6F000E7C6F00F0BD
:1007680038A421D0DCC07CF0DDC07DF086C07EF0EE
:1007780087C07FF0080E0001806F000E0001816FB6
:10078800000E0001826F000E0001836FE2EC12F090
:100798001200000E05D0010E03D0020E01D0030E88
:1007A8000101826F0ED001018051000AD8B4F1D73F
:1007B800010AD8B4F0D7030AD8B4EFD7010AD8B4DD
:1007C800EED7000E0101836F1E0E0101836501D073
:1007D8001DD001018351020D3E0EF324D96E010E86
:1007E800F420DA6E000EDE6E000EDD6E010183511C
:1007F800020D000EF324D96E010EF420DA6E000EFD
:10080800DE6E000EDD6E0101832BDED7400E010186
:100818003F6F000E3E6F010182510101D8A414D030
:1008280036AA02D001017E8F38A002D001017E8D48
:1008380036AC02D001017E8936A802D001017E873C
:1008480001017E5101013E13000E0101836F010E6B
:100858000101816F1D0E0101836501D063D0010183
:100868008351020D840EF324D96E010EF420DA6E42
:10087800DE50DE10D8B453D0000E0001886F200E71
:100888000001896F000E00018A6F010E00018B6F55
:100898000101835100018D6F8C6B00018A510001A9
:1008A8008C2700018B5100018D23010182511E0DFF
:1008B800000E00018E6F030E00018F6FF3500001D0
:1008C8008E27F45000018F2301018351010DF3504D
:1008D80000018E25D96EF45000018F21DA6EDF50A9
:1008E8000001906F0001905100018C13000E8D13D0
:1008F8000001885100018C130001895100018D13FA
:1009080001018151020D3E0EF324D96E010EF4202F
:10091800DA6E8CC0DEFF8DC0DDFF0101812B010185
:10092800832B98D700F00001DAA51AD00101808D39
:10093800DCC07CF0DDC07DF086C07EF087C07FF033
:1009480080C180F001018151020DF3CF81F03E0E8C
:100958000001826F010E0001836FE2EC12F0BFD03C
:10096800010180510101D8B405D0000E01017D6F4D
:100978000A0E7C6F000E0101836F000E01017F6F6C
:1009880091D001018351020D3E0EF324D96E010E60
:10099800F420DA6EDECF88F0DDCF89F07CC18AF0F2
:1009A8007DC18BF000018A1F8B1F8A4B8B2B0001A6
:1009B800885100018A270001895100018B23010118
:1009C80082513E0D000E00018C6F050E00018D6FE7
:1009D800F35000018C27F45000018D23010183514D
:1009E800020DF35000018C25D96EF45000018D21C1
:1009F800DA6E00018A51DE5C00018B51DE58D8A006
:100A080037D0010182513E0D000E0001886F050E9E
:100A18000001896FF35000018827F45000018923F1
:100A280001018351020DF35000018825D96EF4505D
:100A380000018921DA6E01018351020D3E0EF32473
:100A4800E16E010EF420E26EE6CF8CF0E5CF8DF07A
:100A580001017C5100018C2701017D5100018D238A
:100A6800DE5000018C5DDE5000018D59D8B018D0E1
:100A780001018351020D3E0EF324D96E010EF420BC
:100A8800DA6E01017F51020D000EF324E16E010EB2
:100A9800F420E26EDECFE6FFDDCFE5FF01017F2B1C
:100AA8000101832B010181510101835DD8A069D720
:100AB800DCC07CF0DDC07DF086C07EF087C07FF0B2
:100AC80080C180F001017F51020DF3CF81F0000E4B
:100AD8000001826F010E0001836FE2EC12F0000E3C
:100AE8000101836F29D001018351020D3E0EF324C9
:100AF800D96E010EF420DA6E010182513E0D000E0E
:100B08000001886F050E0001896FF35000018827E6
:100B1800F4500001892301018351020DF3500001B3
:100B28008825E16EF45000018921E26EDECFE6FFF0
:100B3800DDCFE5FF0101832B010181510101835DB7
:100B4800D8B01200D0D736A4B8D136AE02D00F0E26
:100B58000926FF0E0A6EFF0E0B6E09500C6E0D6A09
:100B68000A500C260B500D22B40E0C24D96E030E1D
:100B78000D20DA6E000EDF6E37A213D0FF0E0A6E5C
:100B8800FF0E0B6E09500C6E0D6A0A500C260B50A6
:100B98000D22B40E0C24D96E030E0D20DA6E000E51
:100BA800DB8007C001F008C002F03CEC16F0116EC3
:100BB8001150D8A413D0FF0E0A6EFF0E0B6E095009
:100BC8000C6E0D6A0A500C260B500D22B40E0C2424
:100BD800D96E030E0D20DA6E000EDB8237A013D01B
:100BE800FF0E0A6EFF0E0B6E09500C6E0D6A0A504E
:100BF8000C260B500D22B40E0C24D96E030E0D20BA
:100C0800DA6E000EDB8437A413D0FF0E0A6EFF0ED7
:100C18000B6E09500C6E0D6A0A500C260B500D22F3
:100C2800B40E0C24D96E030E0D20DA6E000EDB868E
:100C380037B247D0FE0E0A6EFF0E0B6E09500C6ECF
:100C48000D6AD8900C360D360A500C260B500D2222
:100C5800840E0C24D96E010E0D20DA6EDE50DE10E3
:100C6800D8B41200FF0E0A6EFF0E0B6E09500C6E00
:100C78000D6A0A500C260B500D22780E0C24D96EE2
:100C8800030E0D20DA6EDF2AFF0E0A6EFF0E0B6EC2
:100C980009500C6E0D6A0A500C260B500D22780E66
:100CA8000C24D96E030E0D20DA6E0A0EDE18D8A4B5
:100CB8001200090456EC10F038840950C5EC13F002
:100CC800120007C00AF008C00BF0090E0C6ED8908D
:100CD8000B320A320C2EFBD71F0E0A16000E0B160B
:100CE80009500D6E0E6A0A500D1809E10B500E18C6
:100CF800D8A405D01150D8B437B001D03AD0FF0EDF
:100D08000A6EFF0E0B6E09500C6E0D6A0A500C2607
:100D18000B500D22960E0C24D96E030E0D20DA6EA0
:100D28000A0EDF6012D0FF0E0A6EFF0E0B6E09501E
:100D38000C6E0D6A0A500C260B500D22960E0C24D0
:100D4800D96E030E0D20DA6EDF2AFF0E0A6EFF0E33
:100D58000B6E09500C6E0D6A0A500C260B500D22B2
:100D6800B40E0C24D96E030E0D20DA6E000EDB844F
:100D78001200FF0E0A6EFF0E0B6E09500C6E0D6A04
:100D88000A500C260B500D22960E0C24D96E030E19
:100D98000D20DA6E000EDF6EFF0E0A6EFF0E0B6E70
:100DA80009500C6E0D6A0A500C260B500D22780E55
:100DB8000C24D96E030E0D20DA6E000EDF6EFF0EC6
:100DC8000A6EFF0E0B6E09500C6E0D6A0A500C2647
:100DD8000B500D22D20E0C24D96E030E0D20DA6EA4
:100DE80007C00EF008C00FF00E0E106ED8900F322C
:100DF8000E32102EFBD70E50030BDF6E50D0FF0EB5
:100E08000A6EFF0E0B6E09500C6E0D6A0A500C2606
:100E18000B500D22000E0C24D96E030E0D20DA6E35
:100E280007C0DFFF1200FF0E0A6EFF0E0B6E09509F
:100E38000C6E0D6A0A500C260B500D221E0E0C2447
:100E4800D96E030E0D20DA6E07C0DFFF1200FF0E09
:100E58000A6EFF0E0B6E09500C6E0D6A0A500C26B6
:100E68000B500D223C0E0C24D96E030E0D20DA6EA9
:100E780007C0DFFF1200FF0E0A6EFF0E0B6E09504F
:100E88000C6E0D6A0A500C260B500D225A0E0C24BB
:100E9800D96E030E0D20DA6E07C0DFFF1200525024
:100EA800000AD8B4ACD7010AD8B4BDD7030AD8B45D
:100EB800CED7010AD8A41200DED7FF0E3616870E49
:100EC8003716FF0E381637B2378607C001F008C04C
:100ED80002F03CEC16F00009D8B4378837B0378AEE
:100EE80037B4378C07C05AF008C05BF01200000E08
:100EF8000001DA6FB9EC17F00BEC18F00009D8B460
:100F0800FBD7050EB3EC0EF0000175510001761108
:100F1800D8B41200010E07EC16F03682000E00015C
:100F2800D96F000ED86F040EB3EC0EF000017551A6
:100F38000001CE6F020EB3EC0EF075C0CAF076C099
:100F4800CBF0010EB3EC0EF075C0CCF076C0CDF04E
:100F580000F00001CEAF04D00001DA810001CE9F7D
:100F68000001CEAD04D00001DA850001CE9D00015C
:100F7800CA510001CB11D8B402D00001DA830001B4
:100F8800CA510001CB11D8B40BD00001DC510001CB
:100F9800CA1905E10001DD510001CB19D8A48FD091
:100FA800030EB3EC0EF075C0C8F076C0C9F0CCC023
:100FB8006BF0CDC06CF0C8C06DF0C9C06EF0B7EC76
:100FC80011F00009D8B4120059D0CCC086F0CDC0B9
:100FD80087F00001CE51A9EC03F012000001CE51B8
:100FE800DFEC16F0DCC07CF0DDC07DF0CCC07EF01C
:100FF800CDC07FF0CEC080F0000E0001816F000EE2
:101008000001826F000E0001836FE2EC12F0000114
:10101800CE51DFEC16F0DCC07CF0DDC07DF0CCC03A
:101028007EF0CDC07FF0CEC080F0000E0001816F51
:10103800000E0001826F000E0001836FE2EC12F0D7
:101048001200CCC086F0CDC087F08FEC0FF01200F4
:10105800CCC086F0CDC087F02EEC0DF01200000E4B
:1010680007EC16F0388A379E8A86120000F0CCC04A
:1010780086F0CDC087F085EC16F012000001CE5145
:10108800000AD8B4A2D7010AD8B49FD7030AD8B4A3
:101098009CD7010AD8B499D7060AD8B49FD7030AAF
:1010A800D8B4B5D7010AD8B4CCD70E0AD8B4D0D79B
:1010B8002C0AD8B4D4D70C0AD8A41200D7D7030E58
:1010C800B3EC0EF075C0C8F076C0C9F0CCC06BF0B8
:1010D800CDC06CF0C8C06DF0C9C06EF0B7EC11F0AF
:1010E8000009D8B412000001DAA11200B3EC15F01F
:1010F80057EC12F01200040E5D18D8A471D000F05D
:1011080037B637BC10D037AA37A801D00CD058C092
:1011180007F059C008F0000E096E5CC00AF007EC31
:1011280012F0000E120037B641D05CC023F0010E59
:10113800246E000E256E232A03D0D8902436253637
:10114800232EFBD758502416595025162450251005
:10115800D8A41DD05CC023F0010E246E000E256EAD
:10116800232A03D0D89024362536232EFBD72450A3
:1011780058122550591258C007F059C008F0000EEF
:10118800096E5CC00AF007EC12F0000E12005C0E4B
:10119800166E000E176E580E186E000E196E5D0E44
:1011A8001A6E000E1B6E74EC09F0120037BC04D0E6
:1011B80059EC14F0050E84D05C2A0E0E5C18D8A4E5
:1011C80004D0000E5D6E010E120058C007F059C021
:1011D80008F0000E096E5CC00AF007EC12F07ED031
:1011E800050E5D18D8A442D0040E5D6E5CC023F0D5
:1011F800010E246E000E256E232A03D0D8902436C3
:101208002536232EFBD7585024165950251624501E
:101218002510D8A41CD05CC023F0010E246E000E4B
:10122800256E232A03D0D89024362536232EFBD7C3
:10123800245058122550591258C007F059C008F0C8
:10124800000E096E5CC00AF007EC12F09ED75C0E27
:10125800166E000E176E580E186E000E196E5D0E83
:101268001A6E000E1B6E74EC09F01200030E5D1866
:10127800D8A416D0A4EC17F03882000E5C6E000ECD
:10128800596E000E586E040E5D6E000E086E000E4C
:10129800076E000E096E000E0A6E07EC12F01ED0E3
:1012A8005D04D8A40FD037B637BC03D057EC17F07D
:1012B80006D037AC04D0000E5D6E010E1200030E8E
:1012C8005D6E0CD0010E5D6E3F0E086EFE0E076E51
:1012D800000E096E0D0E0A6E07EC12F0000E1200D9
:1012E8002ED018C0D9FF19C0DAFFDECF1CF0DDCF31
:1012F8001DF016C0D9FF17C0DAFFDF501E6E010EB1
:101308001F6E000E206E1E2A03D0D8901F3620367E
:101318001E2EFBD71C501F161D5020161F1C216E99
:10132800201C226E18C0D9FF19C0DAFF2150DE1622
:101338002250DD1616C0D9FF17C0DAFFDF0616C027
:10134800D9FF17C0DAFFDF50D8B421D018C0D9FFB1
:1013580019C0DAFFDECF1CF0DDCF1DF016C0D9FFB3
:1013680017C0DAFFDF501E6E010E1F6E000E206ED2
:101378001E2A03D0D8901F3620361E2EFBD71C50AD
:101388001F161D5020161F502010D8A4AAD716C00B
:10139800D9FF17C0DAFFDF50D8A429D018C0D9FF69
:1013A80019C0DAFFDECF1CF0DDCF1DF016C0D9FF63
:1013B80017C0DAFFDF501E6E010E1F6E000E206E82
:1013C8001E2A03D0D8901F3620361E2EFBD71C505D
:1013D8001F161D5020161F502010D8B408D01AC050
:1013E800D9FF1BC0DAFF000EDF6E010E120016C017
:1013F800D9FF17C0DAFFDF501C6E010E1D6E000EFC
:101408001E6E1C2A03D0D8901D361E361C2EFBD704
:1014180018C0D9FF19C0DAFF1D50DE121E50DD12A8
:1014280018C0D9FF19C0DAFFDECF07F0DDCF08F00A
:10143800000E096E16C0D9FF17C0DAFFDF500A6E1A
:1014480007EC12F0000E12005704D8A492D000F056
:1014580037B637BC04D037AA37A801D014D00A0E43
:101468004B6404D0000E576E010E12004B2A000E7A
:10147800086E000E076E050E096E56280A6E07ECF8
:1014880012F0000E120037B637A82AD037BA28D083
:10149800000E4B6EFF0E5A141A6E7F0E5B141B6EF5
:1014A8005650020D840EF324D96E010EF420DA6E24
:1014B8001AC0DEFF1BC0DDFF5650C5EC13F0CEECA2
:1014C80014F0566E1E0E56600BD0000E086E000EFD
:1014D800076E050E096E56280A6E07EC12F0D1D772
:1014E800010E1D6E1C0E1D6401D03FD01D281C6E00
:1014F8001C0E1C6401D037D01C50020D840EF3243E
:10150800D96E010EF420DA6E1D50020D840EF324FC
:10151800E16E010EF420E26EDE50E61822E1DE50A4
:10152800E618D8A41ED01D50020D840EF324D96EDF
:10153800010EF420DA6EDE50DE10D8B412D01D5041
:1015480056EC10F01C5056EC10F0000E086E000E11
:10155800076E050E096E1D280A6E07EC12F0000EC4
:1015680012001C2AC5D71D2ABDD7000E576E010EC2
:1015780012003882010E576ECEEC14F0566E1E0E15
:1015880056600ED0000E4B6E000E086E000E076EF1
:10159800050E096E56280A6E07EC12F0000E1200AE
:1015A800010E12008C848B8683BAFED7728A75CF9F
:1015B80067F0000E756E000E0001686F050E0001E1
:1015C800686501D012D073A0FED700016851010DE3
:1015D8004F0EF324D96E020EF420DA6E75CFDFFFBA
:1015E800000E756E0001682BE9D78C94729A60C062
:1015F800D9FF61C0DAFF000EDE6E000EDE6E000E4F
:10160800DE6E62C0D9FF63C0DAFF000EDE6E000E28
:10161800DE6E000EDE6E02014F510001666F656BD3
:10162800646B60C0D9FF61C0DAFF00016451DE124B
:101638006551DE126651DE12020150510001646FDD
:10164800656B666B65C066F064C065F00001646B2D
:1016580060C0D9FF61C0DAFF00016451DE12655134
:10166800DE126651DE12020151510001646F656B92
:10167800666B60C0D9FF61C0DAFF00016451DE12F9
:101688006551DE126651DE12020152510001666F89
:10169800656B646B62C0D9FF63C0DAFF00016451F7
:1016A800DE126551DE126651DE120201535100014D
:1016B800646F656B666B65C066F064C065F00001B9
:1016C800646B62C0D9FF63C0DAFF00016451DE12A7
:1016D8006551DE126651DE12020154510001646F39
:1016E800656B666B62C0D9FF63C0DAFF00016451A5
:1016F800DE126551DE126651DE12120000016B69BE
:101708006C690001625100016311D8A409D000017D
:101718006B1D0001606F00016C1D0001616F1200FC
:10172800000E00016A6F60C0D9FF61C0DAFFDF50A8
:101738000001646F000164510001686F696B00016A
:10174800604B612B070E00016A6501D041D0010E84
:10175800000168150001646F000E000169150001A1
:10176800656F010E00016B150001666F000E000128
:101778006C150001676F000164510001661B0001D0
:1017880065510001671B0001665100016711D8B45B
:1017980014D0D89000016C310001656F00016B31E5
:1017A8000001646F080E0001641900016B6F840E5C
:1017B8000001651900016C6F04D00001D8906C33EA
:1017C8006B3300016A2B0001D89069336833BAD7AC
:1017D80000016207D8A0630700016251000163118C
:1017E800D8A49ED700016B1F6C1F6BC068F06CC03B
:1017F80069F068C064F069C065F065C064F0000114
:10180800656B000164516BC066F06CC067F066C020
:1018180067F00001666B0001661100016B6F000143
:10182800675100016C6F6BC060F06CC061F0120012
:10183800020E36EC15F001C00BF002C00CF0000EE1
:101848003E6E000E3D6E000E106E640E0F6E10BEE2
:1018580006D0F50E0F5C010E1058D8B018D00F50F6
:101868000B5C10500C58D8A007D03C0E3D243D6EA0
:10187800000E3E203E6E04D0020E106E580E0F6E03
:10188800640E0F240F6E000E1020106EE0D7000EAD
:101898000A6E000E096E000E0E6E000E0D6E0EBE64
:1018A80006D00E5013E11E0E0D5CD8B00FD0780E86
:1018B8000D24D96E030E0E20DA6E0A0EDE18D8B487
:1018C80002D0094A0A2A0D4A0E2AE9D709C001F0AE
:1018D8000AC002F0000E046E0B0E036EF4EC16F054
:1018E8004A0E0126000E02220B50015C0C500258D1
:1018F800D8B025D0030E516001D0512A030E5118DB
:10190800D8A41200368C710E076E010E086E09C03D
:1019180001F00AC002F0000E046E0B0E036EF4EC28
:1019280016F007500126085002220B50015C0C509B
:101938000258D8B002D0388C1200389C1200000E21
:10194800516E369C389C120000F0000E00016E6F3C
:101958009F0E00016E6501D077D0000160A102D012
:10196800010E01D0000E0001676F000160A302D0D4
:10197800010E01D0000E0001686F000160A502D0C1
:10198800010E01D0000E0001696F000160A902D0AC
:10199800010E01D0000E00016A6F000160AD02D097
:1019A800010E01D0000E00016B6F000161A502D08D
:1019B800010E01D0000E00016C6F000161A902D078
:1019C800010E01D0000E00016D6F0001675100018A
:1019D80068190001691900016A1900016B190001F1
:1019E8006C1900016D190001666F00016651000154
:1019F800D8A402D0000E01D0800E0001656F000E41
:101A0800646FD890000161310001636F000160319B
:101A18000001626F00016451000162110001606FF2
:101A280000016551000163110001616F00016051FF
:101A380000016111D8A405D0000E0001616F010EEC
:101A4800606F00016E2B84D700F060C060F061C049
:101A580061F01200FE0E0001DC196AE13F0E000180
:101A6800DD19D8A465D0D4EC17F060C08CF061C043
:101A78008DF08CC0D9FF8DC0DAFFDECF88F0DDCFC6
:101A880089F089C088F00001896B8CC0D9FF8DC0AE
:101A9800DAFFDECF8AF0DDCF8BF08AC08BF0000151
:101AA8008A6B0001885100018A110001DC6F000176
:101AB800895100018B110001DD6F0001DC5100012B
:101AC800DD11D8A41CD03F0E0001DD6FFE0EDC6FC7
:101AD800DCC07CF0DDC07DF086C07EF087C07FF082
:101AE800090E0001806F000E0001816F000E0001D9
:101AF800826F000E0001836FE2EC12F0120015EC09
:101B080015F0DCC07CF0DDC07DF086C07EF087C0BB
:101B18007FF0090E0001806F020E0001816FDC0E5C
:101B28000001826F000E0001836FE2EC12F01200D8
:101B3800DCC07CF0DDC07DF086C07EF087C07FF021
:101B4800090E0001806F000E0001816F000E000178
:101B5800826F000E0001836FE2EC12F01200AA0EF1
:101B68000201006FAA0E0201016F9B0E0201026FB3
:101B7800580E0201036F00017251090F0201046F30
:101B880000016E510201056F6DC006F2000170512F
:101B98000201076F6FC008F2DBC009F20001DB2BFE
:101BA80071C00AF2000E0001796F21D0000179514D
:101BB800010DF35000017325D96EF4500001742112
:101BC800DA6E000179510001756F766B0B0E00011A
:101BD8007527000E7623000E00017525E16E020EB2
:101BE80000017621E26EDFCFE7FF0001792B0001CB
:101BF80072510001795DD8A0D9D70B0E0001792761
:101C0800040E0001606F020E0001616F070E0001F3
:101C180072250001626F0001636B000E632382EC82
:101C28000BF060C077F061C078F000017951010DC8
:101C3800000EF324D96E020EF420DA6E00017851FA
:101C4800DF6E0001792B00017951010D000EF3249C
:101C5800D96E020EF420DA6E77C0DFFF79C04FF03C
:101C68001200000E0001736F000E0001746F000E69
:101C78000001756F000E0001766F000E0001776F8E
:101C8800000E0001786F95EC15F0580E00016D6F8D
:101C98009B0E00016E6F000E00016F6F960E000123
:101CA800706F920E0001716F760E0001726F739E55
:101CB800738C72987250F00B0409726E6DC062F0EA
:101CC8006EC063F06FC064F070C065F071C066F0FC
:101CD80072C067F065EC11F06DC062F06EC063F021
:101CE8006FC064F070C065F071C066F072C067F0D4
:101CF80065EC11F0730E0001606F000E0001616F5A
:101D0800760E0001626F000E0001636FD6EC0AF0D8
:101D18000001735100016D190BE1000174510001BC
:101D28006E1906E10001755100016F19D8B412D07F
:101D380000017651000170190BE100017751000193
:101D4800711906E10001785100017219D8B402D066
:101D5800000E1200A49EA38EF28C010E1200000148
:101D6800796F000E00017B6F000E7A6F4FD0F70E6F
:101D780002014F250001756F0001766BFF0E762377
:101D88001200020150510001786F776B0001775102
:101D980000017A130001785100017B1302015151AF
:101DA80000017A137AC075F07BC076F01200020148
:101DB80052510001786F776B0001775100017A1357
:101DC8000001785100017B130201535100017A137D
:101DD8007AC075F07BC076F0120054C275F000012D
:101DE800766B120055C275F00001766B1200B4ECE8
:101DF80010F00001776F000177510001756F766B65
:101E0800120009C275F00001766B120000017951C9
:101E1800000AD8B4ACD7010AD8B4B3D7030AD8B4E7
:101E2800C6D7010AD8B4D9D7070AD8B4DBD7010A6C
:101E3800D8B4DDD7030AD8B4E4D7000E0001766F12
:101E4800000E756F12000001606F00016051010DF6
:101E5800780EF324D96E030EF420DA6E0A0EDF6EC4
:101E680000016051010D960EF324D96E030EF42083
:101E7800DA6E000EDF6E00016051010DB40EF3241E
:101E8800D96E030EF420DA6E000EDF6E0001605189
:101E9800010DD20EF324D96E030EF420DA6E000E73
:101EA800DF6E00016051010D000EF324D96E030EA0
:101EB800F420DA6E000EDF6E00016051010D1E0E77
:101EC800F324D96E030EF420DA6E000EDF6E0001E3
:101ED8006051010D3C0EF324D96E030EF420DA6E26
:101EE800000EDF6E00016051010D5A0EF324D96E09
:101EF800030EF420DA6E000EDF6E00016051020D51
:101F0800840EF324D96E010EF420DA6E000EDE6E14
:101F1800000EDD6E120038A216D0DCC07CF0DDC0E9
:101F28007DF086C07EF087C07FF00F0E0001806FC5
:101F3800000E0001816F000E0001826F000E00018B
:101F4800836FE2EC12F0000E0001C76F000E000173
:101F5800C66F1D0E0001C76501D028D00001C7510A
:101F6800020D840EF324D96E010EF420DA6EDE50D1
:101F7800DE10D8B418D00001C751020D840EF32426
:101F8800D96E010EF420DA6E0001C651020D8A0ED8
:101F9800F324E16E000EF420E26EDECFE6FFDDCF23
:101FA800E5FF0001C62B0001C72BD3D73894DCC04E
:101FB8007CF0DDC07DF086C07EF087C07FF0070E24
:101FC8000001806F0001C651020DF3CF81F08A0E27
:101FD8000001826F000E0001836FE2EC12F0120024
:101FE800E2EC17F00009D8A4120037AE120000F096
:101FF800040E5418D8B40AD09CEC16F00009D8A4E2
:1020080005D066EC17F00009D8B40FD07FEC08F0C3
:102018000009D8B407D0000E546E3884389299EC71
:1020280017F003D0040E546E1200050E5418D8B4DD
:1020380006D0CEEC14F0266E1E0E266025D028ECB5
:102048000AF00009D8B405D0000E546E38843892CE
:102058001BD0050E546E1200000E19EC17F0020E7C
:10206800546E1200020E19EC17F0030E546E120093
:10207800030E19EC17F0010E546E1200010E19EC44
:1020880017F0000E546E12005450000AD8B4E4D76A
:10209800010AD8B4F3D7030AD8B4E4D7010AD8A4FC
:1020A8001200E6D7016E0150010D780EF324D96EA7
:1020B800030EF420DA6E0A0EDF6E0150010D960E43
:1020C800F324D96E030EF420DA6E000EDF6E015091
:1020D800010DB40EF324D96E030EF420DA6E000E4F
:1020E800DF6E0150010DD20EF324D96E030EF420D9
:1020F800DA6E000EDF6E0150010D000EF324D96E6A
:10210800030EF420DA6E000EDF6E0150010D1E0E74
:10211800F324D96E030EF420DA6E000EDF6E015040
:10212800010D3C0EF324D96E030EF420DA6E000E76
:10213800DF6E0150010D5A0EF324D96E030EF42000
:10214800DA6E000EDF6E0150020D840EF324D96E94
:10215800010EF420DA6E000EDE6E000EDD6E120047
:10216800000E0001736F000E726F02014F51FE0FD7
:102178000001746F4F0E0001606F020E0001616F65
:1021880074C062F00001636B82EC0BF060C070F009
:1021980061C071F000017451010D4F0EF324D96E26
:1021A800020EF420DA6EDF5000016D6F00016D51F0
:1021B80000016F6F6E6B00016E5100017213000118
:1021C8006F51000173130001745100016D6F6E6B44
:1021D800010E00016D27000E6E234F0E00016D25C4
:1021E800D96E020E00016E21DA6EDF5000016F6FAA
:1021F80000016F5100017213000172510001701942
:1022080008E10001735100017119D8A402D0010E30
:102218001200000E1200FB0E0001616FFE0E606FCF
:10222800AFEC17F00001656F00016551416E426A1D
:10223800FB0E0001616F6069AFEC17F00001656F7C
:10224800000165510001676F666B0001665141121C
:10225800000167514212FB0E0001616FFC0E606FB6
:10226800AFEC17F00001656F000165510001DC6FEC
:10227800DD6BFB0E0001616FFD0E606FAFEC17F0B8
:102288000001656F000165510001676F666B000111
:1022980066510001DC13000167510001DD1341287C
:1022A8000FE14228D8A41200000E426E010E416EC2
:1022B800000E0001DD6F570EDC6F15EC15F01200F3
:1022C800120064C000F262C068F063C069F064C0C4
:1022D8006AF069C068F06AC069F000016A6B0001C1
:1022E80068510201016F62C002F267C003F265C063
:1022F80068F066C069F067C06AF069C068F06AC0D3
:1023080069F000016A6B000168510201046F65C041
:1023180005F28C848B9683BAFED7728A000E000170
:102328006C6F050E00016C6501D012D075CF6BF093
:1023380000016C51010D000EF324D96E020EF42039
:10234800DA6EDF50756E73A0FED700016C2BE9D7EB
:102358008C948B86729A000E0001616F140E606F68
:1023680048EC17F012006BC060F06CC061F028EC0C
:1023780014F060C074F061C075F000016D51000187
:10238800745D00017551800A00016F6F00016E5184
:10239800800A00016F59D8A02AD0F60E00016F6F8D
:1023A800FF0E0001706F74C071F075C072F000010B
:1023B8006F51000171270001705100017223000163
:1023C800715100016D5D00016E51800A0001736F4B
:1023D80000017251800A00017359D8A008D0F50E87
:1023E800000174190EE100017529D8A40AD06BC048
:1023F80065F06CC066F06DC067F01CEC13F0010E60
:102408001200000E1200E2EC17F00009D8A4120026
:1024180036940A500B6E0C6A0D6A09500E6E0F6ADC
:10242800050ED8900E360F36E82EFBD707C010F0F1
:1024380008C011F0126A11C012F010C011F0106A31
:102448000E501010136E0F501110146E000E0FBEA8
:10245800FF0E1210156E0B5013100001CF6F0C50A9
:1024680014100001D06F0D5015100001D16F0AC073
:1024780001F0026A3CEC16F00B6E09C001F0026A2A
:102488003CEC16F00C6E07C001F008C002F03CEC02
:1024980016F00C180B180009D8B402D00001D18F1F
:1024A800010E536E1200DBC083F0010EB3EC0EF088
:1024B80075C07CF076C07DF0020EB3EC0EF075C0EE
:1024C8007EF076C07FF0030EB3EC0EF0000175517C
:1024D8000001DB6F040EB3EC0EF000017551000132
:1024E800826F000EB3EC0EF0000175510001846F8D
:1024F800D4EC17F060C080F061C081F07CC06DF052
:102508007DC06EF07EC06FF07FC070F082C071F049
:1025180084C072F080C073F081C074F0B3EC0DF029
:10252800E9EC17F00009D8B4FBD708EC18F000095B
:10253800D8A4F6D781EC17F083C0DBF012009B8C8F
:10254800D3508F0B6009D36E960ECB6ECA50870B93
:102558003809CA6E9E929D82CA84F28CF28EC1504E
:10256800C70B0809C16EC150F80B0609C16EC18EB0
:10257800C280928A939E939C8A9E8A9C929C9396F0
:102588009490899C8A968B9094988B98959E8C9E13
:10259800929A899A38809294899493948A8495928D
:1025A8008C8293820F01499592820F0148939682FB
:1025B8000F01489D96908D908C8E12000001DAA133
:1025C80002D00001808F7CC06DF07DC06EF07EC0AF
:1025D8006FF07FC070F080C071F081C072F082C06F
:1025E80073F083C074F0B3EC0DF0060EB3EC0EF08C
:1025F80075C084F076C085F07CC065F07DC066F05B
:1026080084C067F01CEC13F00001DAA302D00001CB
:10261800DAB1B3EC15F0E9EC17F00009D8B4FBD740
:1026280008EC18F00009D8A4F6D781EC17F01200CE
:1026380065C060F066C061F0F2EC14F000016A6FEA
:1026480000016A29D8A40ED077EC15F000016A6F52
:1026580000016A29D8A406D0A9EC14F077EC15F08B
:1026680000016A6F00016A51020D3E0EF324D96E13
:10267800040EF420DA6E65C0DEFF66C0DDFF0001DF
:1026880067510001686F696B00016A51020D000E05
:10269800F324D96E040EF420DA6E68C0DEFF69C038
:1026A800DDFF1200A3BE02D0A49E120075CF01F078
:1026B800000E756E55A015D050504F5CD8B005D09F
:1026C8005590729AA49E8B8612005050010D000EF0
:1026D800F324D96E020EF420DA6EDF50756E502A9C
:1026E80017D055A215D04E50010D4F0EF324D96EB8
:1026F800020EF420DA6E01C0DFFF4E2A4E500201AE
:102708004F19D8A405D055845592729AA49E1200E8
:10271800A49E12000001606F00016051020D000EBE
:10272800F324D96E050EF420DA6E000EDE6E000E6C
:10273800DD6E00016051020D3E0EF324D96E050EC8
:10274800F420DA6E000EDE6E000EDD6E00016051C0
:10275800020D7C0EF324D96E050EF420DA6E000EFD
:10276800DE6E000EDD6E00016051020DBA0EF3241C
:10277800D96E050EF420DA6E000EDE6E000EDD6EE8
:102788001200016E0150020D000EF324D96E050EE1
:10279800F420DA6E000EDE6E000EDD6E0150020DC2
:1027A8003E0EF324D96E050EF420DA6E000EDE6EAE
:1027B800000EDD6E0150020D7C0EF324D96E050E5D
:1027C800F420DA6E000EDE6E000EDD6E0150020D92
:1027D800BA0EF324D96E050EF420DA6E000EDE6E02
:1027E800000EDD6E120005EE00F0F80EEE6AE80647
:1027F800FDE104EE00F07C0EEE6AE806FDE103EE72
:1028080000F0F00EEE6AE806FDE102EE00F09A0E26
:10281800EE6AE806FDE101EE84F03C0EEE6AE80699
:10282800FDE100EECFF00F0EEE6AE806FDE100EEE6
:1028380036F0280EEE6AE806FDE15E905E92000E24
:10284800F86E000175EF17F0000E0001646F1E0EA0
:102858000001646501D023D000016451020D3E0ED1
:10286800F324D96E040EF420DA6E00016051DE18EC
:1028780013E100016151DE18D8A40ED000016451A3
:10288800020D000EF324D96E040EF420DA6EDECFAA
:1028980060F0DDCF61F012000001642BD8D7FF0E85
:1028A8000001616FF50E606F12006DEC16F0186E86
:1028B800FF0E5A14166E7F0E5B14176E1850020D19
:1028C800840EF324D96E010EF420DA6E16C0DEFFF2
:1028D80017C0DDFF1850010D780EF324D96E030ED2
:1028E800F420DA6E000EDF6E16C007F017C008F08D
:1028F800020E096E18280A6E07EC12F012003F4A01
:10290800402A010E36EC15F001C004F002C005F0B3
:102918006D0E045C020E0558D8A003D00001D64BFA
:10292800D72B050E3F184010D8A412008B988C8224
:102938003F500001D61907E140500001D719D8A42B
:1029480002D03688120036981200000E0001606F1F
:102958001E0E0001606501D0120000016051020DD9
:102968003E0EF324D96E040EF420DA6E000EDE6EED
:10297800000EDD6E00016051020D000EF324D96EC9
:10298800040EF420DA6E000EDE6E000EDD6E00011D
:10299800602BDED7010E4C6E1D0E4C6401D01CD08E
:1029A8004C50010D780EF324D96E030EF420DA6E24
:1029B8000A0EDE18D8B40ED04C50020D840EF32443
:1029C800D96E010EF420DA6EDE50DE10D8A402D0E3
:1029D8004C5012004C2AE0D74C501200000E000157
:1029E800646F00016451800A610FD8B018D00001EB
:1029F8006451020D3E0EF324D96E040EF420DA6EF3
:102A080000016051DE1808E100016151DE18D8A408
:102A180003D00001645112000001642BE2D7FF0EBD
:102A28001200FB0E0001616FFE0E606F22EC16F0C3
:102A3800FB0E0001616FFE0E606F41C062F04250F4
:102A48000001636F57EC15F0FB0E0001616FFC0E7F
:102A5800606FDCC062F00001DD510001636F57EC6C
:102A680015F01200036E0DD0C250C30B180907D021
:102A7800C250C30B280903D0C250C30B0409C26E4D
:102A88000AD00350000AD8B4EFD7010AD8B4F0D757
:102A9800030AD8B4F1D7C282C2B2FED7C3CF01F0BD
:102AA800C4CF02F01200000EF2BE010E0001646FE6
:102AB800F29E000EF86E00016151F76E60C0F6FFDD
:102AC80062C0F5FF0D0063C0F5FF0C00A68AA6845E
:102AD800EFEC17F0A69AA694000164510001D8B44F
:102AE8001200F28E1200000E0001626F00016251A6
:102AF800800A610FD8B013D000016251020D3E0E5A
:102B0800F324D96E040EF420DA6EDE50DE10D8A459
:102B180003D00001625112000001622BE7D7FF0EBB
:102B28001200C2EC17F0170E0E01FC6F160E0E0104
:102B3800FD6F0A0E0E01D56FCBEC17F095869388C2
:102B4800F28695948C94958C95988C9894968B860F
:102B580094840F014987958A94928B921200DCC065
:102B680060F0DDC061F0A8EC0CF0FF0E000160150C
:102B780000016F6F030E000161150001706F6FC0D7
:102B880060F070C061F048EC17F0E9EC17F000094C
:102B9800D8A41200F4D7FB0E026EFE0E016EC9EC2B
:102BA80016F0FB0E026EFE0E016E41C003F042509D
:102BB800046EEBEC15F0FB0E026EFC0E016EDCC031
:102BC80003F00001DD51046EEBEC15F01200000E6D
:102BD800F2BE010E056EF29E000EF86E0250F76E00
:102BE80001C0F6FF03C0F5FF0D0004C0F5FF0C009F
:102BF800A68AA684FBEC17F0A69AA6940550D8B42A
:102C08001200F28E12000001626F00016251000191
:102C1800D8B438BC06D08C9E39EC17F02AEC17F0E3
:102C280012003682389A378E36AA05D036AA04D0D2
:102C38000E0E4A6401D08C8E8A961200000EF2BEE7
:102C4800010E0001626FF29E000EF86E00016151E4
:102C5800FC0BF76E000EF86EA684A688EFEC17F052
:102C6800A694000162510001D8B41200F28E12003D
:102C780001C003F002C004F0000E066E000E056EDF
:102C88000F0E066401D007D003B0052AD89004328D
:102C98000332062AF5D705A002D0010E1200000E55
:102CA8001200036E0350D8B438BC06D08C9EA4EC36
:102CB80017F099EC17F012003682389A378E36AA38
:102CC80005D036AA04D00E0E4A6401D08C8E8A969E
:102CD8001200010E036E1D0E036401D010D00350C4
:102CE800020D840EF324D96E010EF420DA6EDE5044
:102CF800DE10D8A402D003501200032AECD70350E8
:102D08001200DCC07CF0DDC07DF086C07EF087C09C
:102D18007FF0290E0001806F000E0001816F000E08
:102D28000001826F000E0001836FE2EC12F01200C6
:102D3800000E016E1B0E016401D00FD00150010D71
:102D4800B40EF324D96E030EF420DA6E0301DFA665
:102D580002D0010E1200012AEDD7000E12008D805C
:102D6800000E36EC15F001C004F002C005F08D909D
:102D780000F0055004E1510E045CD8A004D0000E08
:102D88004A6E369A1200368A1200000EF2BE010E02
:102D9800036EF29E000EF86E0250FC0BF76E000EEA
:102DA800F86EA684A688FBEC17F0A6940350D8B456
:102DB8001200F28E12000001606F00F0060E000192
:102DC8006019D8A404D038903898898A1200050E62
:102DD80000016019D8A4120038803888899A120036
:102DE80001500302F3CF05F0F4CF06F001500402BE
:102DF800F350062602500302F350062605C001F0E0
:102E080006C002F01200000E0001796F040E0001E6
:102E1800796501D0120035EC0EF00009D8B402D063
:102E2800368212000001792BF1D7016EE2EC17F01F
:102E38000009D8A41200368401500001CF6FD06B6E
:102E4800D16B01C052F0010E536E1200000E00014A
:102E5800616F1E0E0001616501D012000001615111
:102E68008EEC13F00001612BF4D7000E0001616FA6
:102E78001D0E0001616501D012000001615127ECAF
:102E88000FF00001612BF4D702D001EC18F000011B
:102E98006007D8A0610700016029F7E100016129F6
:102EA800D8B41200F2D741C007F042C008F0010EB2
:102EB800096E000E0A6E07EC12F0414A422ACFEC66
:102EC80015F012006DEC16F0046E1D0E046007D0AC
:102ED8000A0E03019519D8B402D0010E1200000E93
:102EE8001200DBEC17F0A3EC12F007EC17F005EC7E
:102EF80018F0378E7BEC07F0FDD755808B9683BA98
:102F0800FED7728A75CF60F000C275FF010E506E51
:102F18001200000E0001D76F000ED66F000E406E33
:102F2800000E3F6E8C928B881200000E026E1E0EF1
:102F3800026401D012000250C5EC13F0022AF7D740
:102F4800000E026E1D0E026401D01200025056ECF3
:102F580010F0022AF7D7000EF86E00016151F76EE3
:102F680060C0F6FF0800F55012005582559475CFE1
:102F780060F0000E756E000E4E6E1200F29E550E39
:102F8800A76EAA0EA76E0E01BF91F28E1200F29ED6
:102F9800550EA76EAA0EA76E0E01BF81F28E120003
:102FA800560E0001606F020E0001616F120039ECCD
:102FB80017F00FEC11F0A9EC14F012005350D8B42C
:102FC80002D0010E1200000E120082A402D0000EE0
:102FD8001200010E1200550EA76EAA0EA76EA68249
:102FE800120055A2120081B21200728A1200550E08
:102FF800A76EAA0EA76EA682120036A0FED736903C
:1030080012008A94898412005550010B1200555001
:10301800040B12008A948984120089948A8412000D
:08FFF800BCF4DAFFFDFABFF3CF
:00000001FF
