:04810000EBEF40F071
:108108001E82FACF0CF2FBCF0DF2E9CF0EF2EACFC6
:108118000FF2E1CF10F2E2CF11F2D9CF12F2DACF9B
:1081280013F2F3CF14F2F4CF15F2F6CF16F2F7CF1D
:1081380017F2F8CF18F2F5CF19F29EA21DD09E9231
:1081480003013F4B402B400E03013F190FE19C0EEA
:1081580003014019D8A40AD0000E80EC58F002019F
:108168008A93000E0301406F000E3F6F02018A815F
:10817800EDEC40F03DEC51F0A4BED2EC54F0F2A08E
:1081880008D0000E81B2010E02011A6F0AEC5BF0F2
:10819800F29019C2F5FF18C2F8FF17C2F7FF16C20E
:1081A800F6FF15C2F4FF14C2F3FF13C2DAFF12C2BE
:1081B800D9FF11C2E2FF10C2E1FF0FC2EAFF0EC2EF
:1081C800E9FF0DC2FBFF0CC2FAFF1E9211008DEFF2
:1081D80057F002018D4B8E2B0301434B442BE8D300
:1081E80002018AB70AD002018A87000E02018E6F47
:1081F800000E8D6F37EC5BF0120002018AA507D0E4
:10820800C80E02018D1902018E11D8B40AD00201DC
:108218008AB51200FA0E02018D1902018E11D8A436
:108228001200020E0201A36F02018A97000E0201DA
:108238008E6F000E8D6F34EC5BF0120002018AB76E
:1082480011D002018A8702018AA508D00301150E00
:10825800D8903C373D373E37E82EFAD7000E02015A
:108268009A6F1200410E02018D1902018E11D8A4D5
:1082780006D003013EBF120037EC5BF012004B0E34
:1082880002018D1902018E11D8A403D037EC5BF0DE
:108298001200640E02018D1902018E11D8A4120079
:1082A8000301D8903C373D373E3702019A2B34EC16
:1082B8005BF002018AA50BD0030E02019A19D8A41B
:1082C80006D0040E0201A36F02018A9713D002019F
:1082D8008AB510D0180E02019A19D8A40BD0030E33
:1082E8000201A36F02018A97000E0201996F050E21
:1082F8000201986F000E02018E6F000E8D6F120042
:10830800020E3FEC58F001C014F002C015F048D13D
:1083180002018E5105E1420E02018D5DD8A008D000
:1083280002019951D8A404D0000E0201986F1200DE
:1083380002019951D8B41200000E0201986F120080
:108348008FC212F090C213F0121E131E124A132A83
:108358001450122615501322370E125C010E1358B2
:10836800D8A00ED0010E0201986F02018B83000E77
:108378000301446F000E436F010E0201966F120055
:1083880002018E5105E17E0E02018D5DD8A012001A
:10839800040E0201986F12008FC212F090C213F0FF
:1083A800121E131E124A132A145012261550132295
:1083B800370E125C010E1358D8A002D00201962B7A
:1083C8008FC212F090C213F0121E131E124A132A03
:1083D80014501226155013226D0E125C020E1358FB
:1083E800D8A005D0040E0201986F02018B85500EAB
:1083F8000301431903014411D8A41200460E0201D7
:10840800966107D0898C040E0201986F02018B8156
:108418001200020E0201986F000E0301446F000E55
:10842800436F000E0301426F000E416F000E020100
:10843800976F000E0201966F12008FC212F090C261
:1084480013F0121E131E124A132A14501226155026
:108458001322370E125C010E1358D8A002D0020165
:10846800962B3C0E0301431903014411D8A41200B2
:108478000301D89041374237090E0201966504D0AE
:10848800320E0201966506D0040E0201986F0201B1
:108498008B8106D01E0E0201966102D00301418134
:1084A8000201972B100E02019719D8A403D0030ECE
:1084B8000201986F000E0201966F000E0301446FCF
:1084C800000E436F12008FC212F090C213F0121EFA
:1084D800131E124A132A1450122615501322370E4F
:1084E800125C010E1358D8A002D00201962B8FC23D
:1084F80012F090C213F0121E131E124A132A1450BF
:108508001226155013226D0E125C020E1358D8A0B5
:1085180005D0040E0201986F02018B856E0E0301CF
:10852800431903014411D8A41200640E0201966194
:1085380002D002018B81040E0201986F1200140E02
:1085480002018D1904E1050E02018E19D8A412004A
:1085580041C307F042C308F002019929096E01ECF2
:1085680047F002018AA504D0040E0201A36F05D0CA
:10857800060E0201A36F37EC5BF0000E02018E6F4E
:10858800000E8D6F000E0301426F000E416F020155
:10859800992B02018B9302018B9102018B9512009A
:1085A80002019851000AD8B4CBD6010AD8B4F4D63F
:1085B800030AD8B442D7010AD8B485D7070AD8B471
:1085C800BED7010AD8A41200A3D602018AB706D0E2
:1085D80002018A87000E0201996F12000F0E020134
:1085E8009919D8A414D002018AAF0AD0060E020144
:1085F800A36F02018A9702018A9F37EC5BF0120091
:10860800050E0201A36F000E0201996F1200030EFE
:108618000201A36F050E0201986F1200020E0201FB
:108628008D1902018E11D8A421D002018CBB120031
:1086380002018ABD0BD002018AA308D002018ABBBD
:1086480005D002018AB902D0898C120002018ABDC4
:1086580003D002018AA902D08A86120002018AA3E5
:1086680003D002018AAB12008B801200F40E0201C3
:108678008D1903E102018E05D8A41200040E02012F
:10868800A36F02018A8F000E02018E6F000E8D6F9C
:1086980002018CBB1200899C8A968B9012002C0ECA
:1086A80002018D1903E102018E05D8A41200070EFC
:1086B8000201A36F000E02018E6F000E8D6F34EC65
:1086C8005BF0120002018AB721D002018A870201F9
:1086D8008CBB14D002018ABD06D002018AB903D02E
:1086E80002018AB305D002018AA505D08A8606D080
:1086F80002018AB502D08B8001D0898CA9EC5AF08E
:10870800000E0301486F000E476F120002018E51E0
:1087180005E1F50E02018D5DD8A00BD0030148518B
:1087280008E1060E0301475DD8B003D0B4EC56F05B
:108738001200F40E02018D1903E102018E05D8A47E
:10874800120002018A97090E0201A36F000E0201AE
:10875800946F000E02018E6F000E8D6F02018CBBAC
:108768001200899C8A968B90120002018D4B8E2BE9
:1087780064D0000E02018E6F000E8D6F040E020190
:10878800956F12004C0E02018D1904E19A0E020138
:108798008E19D8A41200060E0201956F8A8612005F
:1087A800400E02018D1904E19C0E02018E19D8A415
:1087B8001200050E0201956F8A96000E02018E6F57
:1087C800000E8D6F1200B80E02018D1904E1880E9B
:1087D80002018E19D8A41200010E0201956F120031
:1087E80034EC5BF0020E0201956F1200400E02019C
:1087F8008D1904E19C0E02018E19D8A4120024ECF4
:108808004EF0030E0201956F8A861200340E0201A3
:108818008D1904E19E0E02018E19D8A412008A96C1
:10882800000E0201956F02018CAD03D037EC5BF0AE
:108838001200000E0201A36F120002019551000AF6
:10884800D8B497D7010AD8B4CBD7030AD8B4CED7AF
:10885800010AD8B4DBD7070AD8B494D7010AD8B428
:10886800B2D7030AD8A412009BD702018D4B8E2BD6
:1088780093D0E80E02018D1904E1030E02018E194E
:10888800D8A4120002018AA504D064EC59F024ECA3
:108898004EF002018AAB10D00201A151D8A40CD02D
:1088A800000E02018E6F000E8D6F010E0201946F93
:1088B80037EC5BF08C9E120002018CAD09D037ECCE
:1088C8005BF0080E0201A36F000E0201956F120003
:1088D800000E0201A36F1200B00E02018D1916E1FD
:1088E8009A0E02018E19D8A411D064EC59F0020135
:1088F8008AAB02D0898C1200000E0201A36F000E11
:108908000201946F8C8E34EC5BF01200400E020171
:108918008D1904E19C0E02018E19D8A41200899CBD
:10892800000E02018E6F000E8D6F030E0201946F10
:108938001200B00E02018D191AE19A0E02018E1969
:10894800D8A415D064EC59F002018AAB06D00F0EFA
:108958000201A16102D08B801200000E0201A36FF8
:10896800000E0201946F8C8E34EC5BF01200400E06
:1089780002018D193EE19C0E02018E19D8A4120045
:108988008B90010E0201946F0201A12B000E0201CF
:108998008E6F000E8D6F120002019451000AD8B438
:1089A80068D7010AD8B498D7020AD8A41200C1D748
:1089B8000201A351000AD8B41200010AD8B410D495
:1089C800030AD8B43BD4010AD8B49AD4070AD8B455
:1089D800FCD5010AD8B422D6030AD8B460D6010A55
:1089E800D8B470D60F0AD8B4C0D6010AD8A41200D9
:1089F8003CD712000501806F000E05017E6F000E46
:108A080005017D6F000E7C6F00F002018CA521D05E
:108A1800A9C237F2AAC238F241C239F242C23AF2C6
:108A2800080E02013B6F000E02013C6F000E0201AE
:108A38003D6F000E02013E6FA6EC55F01200000ECD
:108A480005D0010E03D0020E01D0030E0501826F7E
:108A58000ED005018051000AD8B4F1D7010AD8B464
:108A6800F0D7030AD8B4EFD7010AD8B4EED7000E6E
:108A78000501836F1E0E0501836501D01DD0050118
:108A88008351020D3E0EF324D96E050EF420DA6EE2
:108A9800000EDE6E000EDD6E05018351020D000E24
:108AA800F324D96E050EF420DA6E000EDE6E000E89
:108AB800DD6E0501832BDED7400E05013F6F000EEA
:108AC8003E6F050182510501D8A418D002018AAB76
:108AD80002D005017E8F02018CA102D005017E8D96
:108AE80002018AAD02D005017E8902018AA902D05D
:108AF80005017E8705017E5105013E13000E050123
:108B0800836F010E0501816F1D0E0501836501D07C
:108B180063D005018351020D000EF324D96E030EB4
:108B2800F420DA6EDE50DE10D8B453D0000E020105
:108B3800436F200E0201446F000E0201456F010EC3
:108B48000201466F050183510201486F476B02011C
:108B580045510201472702014651020148230501F8
:108B680082511E0D000E0201496F040E02014A6F68
:108B7800F35002014927F45002014A2305018351A9
:108B8800010DF35002014925D96EF45002014A2122
:108B9800DA6EDF5002014B6F02014B51020147139D
:108BA800000E4813020143510201471302014451C8
:108BB8000201481305018151020D3E0EF324D96EBE
:108BC800050EF420DA6E47C2DEFF48C2DDFF05015C
:108BD800812B0501832B98D700F0020193A51AD0A9
:108BE8000501808DA9C237F2AAC238F241C239F212
:108BF80042C23AF280C53BF205018151020DF3CF22
:108C08003CF23E0E02013D6F050E02013E6FA6ECDE
:108C180055F0BFD0050180510501D8B405D0000E2C
:108C280005017D6F0A0E7C6F000E0501836F000E33
:108C380005017F6F91D005018351020D3E0EF3248B
:108C4800D96E050EF420DA6EDECF43F2DDCF44F2A2
:108C58007CC545F27DC546F20201451F461F454BBE
:108C6800462B0201435102014527020144510201EA
:108C78004623050182513E0D000E0201476F060E84
:108C88000201486FF35002014727F45002014823BC
:108C980005018351020DF35002014725D96EF450A6
:108CA80002014821DA6E02014551DE5C020146519B
:108CB800DE58D8A037D0050182513E0D000E0201C2
:108CC800436F060E0201446FF35002014327F4502C
:108CD8000201442305018351020DF350020143258B
:108CE800D96EF45002014421DA6E05018351020D58
:108CF8003E0EF324E16E050EF420E26EE6CF47F255
:108D0800E5CF48F205017C510201472705017D5155
:108D180002014823DE500201475DDE500201485936
:108D2800D8B018D005018351020D3E0EF324D96E38
:108D3800050EF420DA6E05017F51020D000EF324B2
:108D4800E16E050EF420E26EDECFE6FFDDCFE5FF33
:108D580005017F2B0501832B050181510501835DE9
:108D6800D8A069D7A9C237F2AAC238F241C239F2EB
:108D780042C23AF280C53BF205017F51020DF3CFA2
:108D88003CF2000E02013D6F050E02013E6FA6EC9B
:108D980055F0000E0501836F29D005018351020D9E
:108DA8003E0EF324D96E050EF420DA6E05018251C9
:108DB8003E0D000E0201436F060E0201446FF35090
:108DC80002014327F4500201442305018351020D97
:108DD800F35002014325E16EF45002014421E26E92
:108DE800DECFE6FFDDCFE5FF0501832B05018151CD
:108DF8000501835DD8B01200D0D702018AA5C0D181
:108E080002018AAF02D00F0E0926FF0E0A6EFF0E6E
:108E18000B6E09500C6E0D6A0A500C260B500D2271
:108E2800B40E0C24D96E040E0D20DA6E000EDF6E1F
:108E380002018BA313D0FF0E0A6EFF0E0B6E0950B2
:108E48000C6E0D6A0A500C260B500D22B40E0C2421
:108E5800D96E040E0D20DA6E000EDB8007C001F01B
:108E680008C002F07DEC59F0116E1150D8A413D04F
:108E7800FF0E0A6EFF0E0B6E09500C6E0D6A0A503B
:108E88000C260B500D22B40E0C24D96E040E0D20A6
:108E9800DA6E000EDB8202018BA113D0FF0E0A6E80
:108EA800FF0E0B6E09500C6E0D6A0A500C260B5003
:108EB8000D22B40E0C24D96E040E0D20DA6E000EAD
:108EC800DB8402018BA513D0FF0E0A6EFF0E0B6E1A
:108ED80009500C6E0D6A0A500C260B500D22B40E68
:108EE8000C24D96E040E0D20DA6E000EDB8602010A
:108EF8008BB348D0FE0E0A6EFF0E0B6E09500C6E37
:108F08000D6AD8900C360D360A500C260B500D22DF
:108F1800000E0C24D96E030E0D20DA6EDE50DE1022
:108F2800D8B41200FF0E0A6EFF0E0B6E09500C6EBD
:108F38000D6A0A500C260B500D22780E0C24D96E9F
:108F4800040E0D20DA6EDF2AFF0E0A6EFF0E0B6E7E
:108F580009500C6E0D6A0A500C260B500D22780E23
:108F68000C24D96E040E0D20DA6E0A0EDE18D8A471
:108F78001200090480EC52F002018C85095051EC72
:108F880056F0120007C00AF008C00BF0090E0C6E6C
:108F9800D8900B320A320C2EFBD71F0E0A16000E81
:108FA8000B1609500D6E0E6A0A500D180AE10B5087
:108FB8000E18D8A406D01150D8A403D002018BA152
:108FC8003AD0FF0E0A6EFF0E0B6E09500C6E0D6A3A
:108FD8000A500C260B500D22960E0C24D96E040E46
:108FE8000D20DA6E0A0EDF6012D0FF0E0A6EFF0E39
:108FF8000B6E09500C6E0D6A0A500C260B500D2290
:10900800960E0C24D96E040E0D20DA6EDF2AFF0EA0
:109018000A6EFF0E0B6E09500C6E0D6A0A500C2674
:109028000B500D22B40E0C24D96E040E0D20DA6EEE
:10903800000EDB841200FF0E0A6EFF0E0B6E095045
:109048000C6E0D6A0A500C260B500D22960E0C243D
:10905800D96E040E0D20DA6E000EDF6EFF0E0A6E5A
:10906800FF0E0B6E09500C6E0D6A0A500C260B5041
:109078000D22780E0C24D96E040E0D20DA6E000E27
:10908800DF6EFF0E0A6EFF0E0B6E09500C6E0D6A36
:109098000A500C260B500D22D20E0C24D96E040E49
:1090A8000D20DA6E07C00EF008C00FF00E0E106E1D
:1090B800D8900F320E32102EFBD70E50030BDF6EF6
:1090C80050D0FF0E0A6EFF0E0B6E09500C6E0D6A23
:1090D8000A500C260B500D22000E0C24D96E040EDB
:1090E8000D20DA6E07C0DFFF1200FF0E0A6EFF0EBA
:1090F8000B6E09500C6E0D6A0A500C260B500D228F
:109108001E0E0C24D96E040E0D20DA6E07C0DFFF88
:109118001200FF0E0A6EFF0E0B6E09500C6E0D6AE0
:109128000A500C260B500D223C0E0C24D96E040E4E
:109138000D20DA6E07C0DFFF1200FF0E0A6EFF0E69
:109148000B6E09500C6E0D6A0A500C260B500D223E
:109158005A0E0C24D96E040E0D20DA6E07C0DFFFFC
:1091680012000201A251000AD8B4ABD7010AD8B440
:10917800BCD7030AD8B4CDD7010AD8A41200DDD7CA
:10918800FF0E02018A17870E02018B17FF0E0201DC
:109198008C1702018BA302D002018B8707C001F054
:1091A80008C002F07DEC59F00009D8A402D00201F1
:1091B8008B8902018BA102D002018B8B02018BA546
:1091C80002D002018B8D07C0E6F308C0E7F3120056
:1091D800040E0201AE19D8A48FD000F002018BA7AB
:1091E80015D002018BBD12D002018BBB03D0020146
:1091F8008BB90CD0ABC207F0ACC208F0000E096EF8
:10920800ADC20AF0E4EC53F0000E120002018BB775
:1092180055D0ADC208F2010E0201096F000E02011D
:109228000A6F0201082B04D0D890020109370A37C7
:109238000201082FF9D70201AB51020109170201F7
:10924800AC5102010A170201095102010A11D8A4FE
:1092580026D0ADC208F2010E0201096F000E02010C
:109268000A6F0201082B04D0D890020109370A3787
:109278000201082FF9D7020109510201AB130201BB
:109288000A510201AC13ABC207F0ACC208F0000EE1
:10929800096EADC20AF0E4EC53F0000E1200AD0EF8
:1092A800166E020E176EAB0E186E020E196EAE0E0B
:1092B8001A6E020E1B6E31EC4BF0120002018BBDD0
:1092C80004D00DEC57F0050EA8D00201AD2B0E0E00
:1092D8000201AD19D8A405D0000E0201AE6F010E2F
:1092E8001200ABC207F0ACC208F0000E096EADC2A6
:1092F8000AF0E4EC53F0A1D0050E0201AE19D8A48F
:1093080057D0040E0201AE6FADC208F2010E020181
:10931800096F000E02010A6F0201082B04D0D890D1
:10932800020109370A370201082FF9D70201AB51A8
:10933800020109170201AC5102010A170201095181
:1093480002010A11D8A425D0ADC208F2010E02010B
:10935800096F000E02010A6F0201082B04D0D89091
:10936800020109370A370201082FF9D7020109510A
:109378000201AB1302010A510201AC13ABC207F0A0
:10938800ACC208F0000E096EADC20AF0E4EC53F06E
:1093980084D7AD0E166E020E176EAB0E186E020E47
:1093A800196EAE0E1A6E020E1B6E31EC4BF01200E7
:1093B800030E0201AE19D8A41AD0CDEC5AF002015E
:1093C8008C83000E0201AD6F000E0201AC6F000E1F
:1093D800AB6F040E0201AE6F000E086E000E076E32
:1093E800000E096E000E0A6EE4EC53F026D002015E
:1093F800AE05D8A415D002018BA706D002018BBDFB
:1094080003D042EC5AF008D002018BAD05D0000E13
:109418000201AE6F010E1200030E0201AE6F0DD0F5
:10942800010E0201AE6F3F0E086EFE0E076E000EB3
:10943800096E0D0E0A6EE4EC53F0000E1200000ED9
:109448000201936FB6EC5AF02DEC5BF00009D8B42A
:10945800FBD7050EC9EC50F0020130510201311161
:10946800D8B41200010EFAEC57F002018A83000EFC
:109478000301406F000E3F6F040EC9EC50F002016B
:1094880030510201896F020EC9EC50F030C285F2EA
:1094980031C286F2010EC9EC50F030C287F231C2F7
:1094A80088F200F0020189AF04D002019381020121
:1094B800899F020189AD04D0020193850201899D2B
:1094C8000201855102018611D8B402D002019383AA
:1094D8000201855102018611D8B40BD00201A951AD
:1094E8000201851905E10201AA5102018619D8A4D1
:1094F80098D0030EC9EC50F030C283F231C284F226
:1095080087C226F288C227F283C228F284C229F2CF
:1095180036EC54F00009D8B412005FD087C241F28B
:1095280088C242F202018951FEEC44F012000201A5
:1095380089514BEC59F0A9C237F2AAC238F287C256
:1095480039F288C23AF289C23BF2000E02013C6F3E
:10955800000E02013D6F000E02013E6FA6EC55F0B1
:10956800020189514BEC59F0A9C237F2AAC238F26C
:1095780087C239F288C23AF289C23BF2000E020170
:109588003C6F000E02013D6F000E02013E6FA6EC1B
:1095980055F0120087C241F288C242F219EC52F02B
:1095A800120087C241F288C242F244EC4FF0120026
:1095B800000EFAEC57F002018C8B02018B9F8A8611
:1095C800120000F087C241F288C242F2AEEC59F0B4
:1095D8001200E1EC56F0FF00120002018951000A66
:1095E800D8B49CD7010AD8B499D7030AD8B496D767
:1095F800010AD8B493D7060AD8B499D7030AD8B4BD
:10960800AFD7010AD8B4C6D70E0AD8B4CAD72C0A1D
:10961800D8B4CED70C0AD8B4D4D7180AD8A4120014
:10962800D8D7030EC9EC50F030C283F231C284F2AD
:1096380087C226F288C227F283C228F284C229F29E
:1096480036EC54F00009D8B41200020193A11200BC
:10965800F9EC58F086EC54F012003DD018C0D9FF50
:1096680019C0DAFFDECF01F2DDCF02F216C0D9FF52
:1096780017C0DAFFDF500201036F010E0201046F09
:10968800000E0201056F0201032B04D0D8900201DD
:10969800043705370201032FF9D7020101510201EE
:1096A800041702010251020105170201041D0201FB
:1096B800066F0201051D0201076F18C0D9FF19C006
:1096C800DAFF02010651DE160751DD1616C0D9FF72
:1096D80017C0DAFFDF0616C0D9FF17C0DAFFDF5060
:1096E800D8B42DD018C0D9FF19C0DAFFDECF01F2E7
:1096F800DDCF02F216C0D9FF17C0DAFFDF50020132
:10970800036F010E0201046F000E0201056F0201D2
:10971800032B04D0D8900201043705370201032F28
:10972800F9D7020101510201041702010251020195
:1097380005170201045102010511D8A48FD716C0DC
:10974800D9FF17C0DAFFDF50D8A435D018C0D9FF29
:1097580019C0DAFFDECF01F2DDCF02F216C0D9FF61
:1097680017C0DAFFDF500201036F010E0201046F18
:10977800000E0201056F0201032B04D0D8900201EC
:10978800043705370201032FF9D7020101510201FD
:1097980004170201025102010517020104510201D6
:1097A8000511D8B408D01AC0D9FF1BC0DAFF000EC3
:1097B800DF6E010E120016C0D9FF17C0DAFFDF50A6
:1097C8000201016F010E0201026F000E0201036F18
:1097D8000201012B04D0D89002010237033702019D
:1097E800012FF9D718C0D9FF19C0DAFF02010251B9
:1097F800DE120351DD1218C0D9FF19C0DAFFDECF1F
:1098080007F0DDCF08F0000E096E16C0D9FF17C0AB
:10981800DAFFDF500A6EE4EC53F0000E120002018A
:109828009D05D8A4A8D000F002018BA709D0020199
:109838008BBD06D002018BBB03D002018BB918D0B7
:109848000A0E02019F6505D0000E02019D6F010EF0
:10985800120002019F2B000E086E000E076E050E07
:10986800096E02019E290A6EE4EC53F0000E120004
:1098780002018BA736D002018BA933D002018BBB22
:1098880030D0000E02019F6FFF0E0301E6151A6E1D
:109898007F0E0301E7151B6E02019E51020D000E9B
:1098A800F324D96E030EF420DA6E1AC0DEFF1BC053
:1098B800DDFF02019E5151EC56F039EC57F00201E0
:1098C8009E6F1E0E02019E610CD0000E086E000EE7
:1098D800076E050E096E02019E290A6EE4EC53F02C
:1098E800C5D7010E1D6E1C0E1D6401D03FD01D286A
:1098F8001C6E1C0E1C6401D037D01C50020D000ECB
:10990800F324D96E030EF420DA6E1D50020D000EFA
:10991800F324E16E030EF420E26EDE50E61822E135
:10992800DE50E618D8A41ED01D50020D000EF324F8
:10993800D96E030EF420DA6EDE50DE10D8B412D0E1
:109948001D5080EC52F01C5080EC52F0000E086E56
:10995800000E076E050E096E1D280A6EE4EC53F022
:10996800000E12001C2AC5D71D2ABDD7000E020101
:109978009D6F010E120002018C83010E02019D6F82
:1099880039EC57F002019E6F1E0E02019E6110D045
:10999800000E02019F6F000E086E000E076E050E86
:1099A800096E02019E290A6EE4EC53F0000E1200C3
:1099B800010E12008C848B8683BAFED7728A75CF0B
:1099C80022F2000E756E000E0201236F050E0201D1
:1099D800236501D012D073A0FED702012351010DD7
:1099E8009B0EF324D96E030EF420DA6E75CFDFFFD9
:1099F800000E756E0201232BE9D78C94729A1BC254
:109A0800D9FF1CC2DAFF000EDE6E000EDE6E000EFD
:109A1800DE6E1DC2D9FF1EC2DAFF000EDE6E000E1A
:109A2800DE6E000EDE6E03019B510201216F206B7A
:109A38001F6B1BC2D9FF1CC2DAFF02011F51DE12C5
:109A48002051DE122151DE1203019C5102011F6FC9
:109A5800206B216B20C221F21FC220F202011F6B72
:109A68001BC2D9FF1CC2DAFF02011F51DE122051AE
:109A7800DE122151DE1203019D5102011F6F206B7E
:109A8800216B1BC2D9FF1CC2DAFF02011F51DE1273
:109A98002051DE122151DE1203019E510201216F75
:109AA800206B1F6B1DC2D9FF1EC2DAFF02011F51B6
:109AB800DE122051DE122151DE1203019F510201F4
:109AC8001F6F206B216B20C221F21FC220F20201FE
:109AD8001F6B1DC2D9FF1EC2DAFF02011F51DE1221
:109AE8002051DE122151DE120301A05102011F6F25
:109AF800206B216B1DC2D9FF1EC2DAFF02011F5164
:109B0800DE122051DE122151DE12120002012669F6
:109B1800276902011D5102011E11D8A409D00201B2
:109B2800261D02011B6F0201271D02011C6F120076
:109B3800000E0201236F1BC2D9FF1CC2DAFFDF50DF
:109B480002011F6F02011F510201246F256B0201E0
:109B58001B4B1C2B070E0201236501D041D0010EBF
:109B68000201241502011F6F000E020125150201D2
:109B7800206F010E020126150201216F000E02015D
:109B880027150201226F02011F510201211B020148
:109B980020510201221B0201215102012211D8B4D5
:109BA80014D0D890020127310201206F020126311A
:109BB80002011F6F080E02011F190201266F840E91
:109BC800020120190201276F04D00201D89027331F
:109BD80026330201232B0201D89025332433BAD728
:109BE80002011D07D8A01E0702011D5102011E1106
:109BF800D8A49ED70201261F271F26C224F227C2F7
:109C080025F224C21FF225C220F220C21FF202014F
:109C1800206B02011F5126C221F227C222F221C263
:109C280022F20201216B020121110201266F0201B9
:109C380022510201276F26C21BF227C21CF2120012
:109C4800020E3FEC58F001C00BF002C00CF0000E01
:109C58000201906F000E8F6F000E106E640E0F6E73
:109C680010BE06D0F50E0F5C010E1058D8B01CD0EF
:109C78000F500B5C10500C58D8A00BD03C0E0201B2
:109C88008F2502018F6F000E020190210201906F53
:109C980004D0020E106E580E0F6E640E0F240F6E55
:109CA800000E1020106EDCD7000E0A6E000E096E32
:109CB800000E0E6E000E0D6E0EBE06D00E5013E195
:109CC8001E0E0D5CD8B00FD0780E0D24D96E040E80
:109CD8000E20DA6E0A0EDE18D8B402D0094A0A2A13
:109CE8000D4A0E2AE9D709C001F00AC002F0000E99
:109CF800046E0B0E036E1CEC5AF04A0E0126000E81
:109D080002220B50015C0C500258D8B02BD0030E25
:109D18000201A06102D00201A02B030E0201A019CA
:109D2800D8A4120002018A8D710E076E010E086E0A
:109D380009C001F00AC002F0000E046E0B0E036E9B
:109D48001CEC5AF007500126085002220B50015C07
:109D58000C500258D8B003D002018C8D12000201B9
:109D68008C9D1200000E0201A06F02018A9D020163
:109D78008C9D120000F0000E0201296F9F0E020157
:109D8800296501D077D002011BA102D0010E01D0B4
:109D9800000E0201206F02011BA302D0010E01D0A8
:109DA800000E0201216F02011BA502D0010E01D095
:109DB800000E0201226F02011BA902D0010E01D080
:109DC800000E0201236F02011BAD02D0010E01D06B
:109DD800000E0201246F02011CA502D0010E01D061
:109DE800000E0201256F02011CA902D0010E01D04C
:109DF800000E0201266F0201205102012119020101
:109E0800221902012319020124190201251902014C
:109E1800261902011F6F02011F510201D8A402D0A6
:109E2800000E01D0800E0201286F000E276FD89017
:109E380002011C3102011E6F02011B3102011D6F5C
:109E48000201275102011D1102011B6F0201285155
:109E580002011E1102011C6F02011B5102011C119B
:109E6800D8A405D0000E02011C6F010E1B6F020161
:109E7800292B84D700F01BC21BF21CC21CF2120053
:109E8800FE0E0201A9196AE13F0E0201AA19D8A41F
:109E980065D0FCEC5AF01BC247F21CC248F247C21C
:109EA800D9FF48C2DAFFDECF43F2DDCF44F244C225
:109EB80043F20201446B47C2D9FF48C2DAFFDECF42
:109EC80045F2DDCF46F245C246F20201456B02017A
:109ED8004351020145110201A96F020144510201D7
:109EE80046110201AA6F0201A9510201AA11D8A4C0
:109EF8001CD03F0E0201AA6FFE0EA96FA9C237F24D
:109F0800AAC238F241C239F242C23AF2090E02013B
:109F18003B6F000E02013C6F000E02013D6F000E08
:109F280002013E6FA6EC55F012001DEC58F0A9C2D4
:109F380037F2AAC238F241C239F242C23AF2090EE5
:109F480002013B6F020E02013C6FA90E02013D6F38
:109F5800020E02013E6FA6EC55F01200A9C237F2BC
:109F6800AAC238F241C239F242C23AF2090E0201DB
:109F78003B6F000E02013C6F000E02013D6F000EA8
:109F880002013E6FA6EC55F01200AA0E03014C6FB9
:109F9800AA0E03014D6F9B0E03014E6F580E03016D
:109FA8004F6F02012D51090F0301506F0201295112
:109FB8000301516F28C252F302012B510301536F61
:109FC8002AC254F3A4C255F30201A42B2CC256F39F
:109FD800000E0201346F21D002013451010DF350FB
:109FE80002012E25D96EF45002012F21DA6E0201EA
:109FF80034510201306F316B0B0E02013027000E15
:10A0080031234C0E02013025E16E030E020131218D
:10A01800E26EDFCFE7FF0201342B02012D5102016E
:10A02800345DD8A0D9D70B0E02013427500E020197
:10A038001B6F030E02011C6F070E02012D25020182
:10A048001D6F02011E6B000E1E238AEC4DF01BC211
:10A0580032F21CC233F202013451010D4C0EF324CA
:10A06800D96E030EF420DA6E02013351DF6E02015D
:10A07800342B02013451010D4C0EF324D96E030E1A
:10A08800F420DA6E32C2DFFF34C2A7F21200000EEB
:10A0980002012E6F000E02012F6F000E0201306FB9
:10A0A800000E0201316F000E0201326F000E020134
:10A0B800336FBEEC58F0580E0201286F9B0E020158
:10A0C800296F000E02012A6F960E02012B6F920E65
:10A0D80002012C6F760E02012D6F739E738C72989D
:10A0E8007250F00B0409726E28C21DF229C21EF2CA
:10A0F8002AC21FF22BC220F22CC221F22DC222F258
:10A1080092EC53F028C21DF229C21EF22AC21FF295
:10A118002BC220F22CC221F22DC222F292EC53F073
:10A128002E0E02011B6F020E02011C6F310E02017E
:10A138001D6F020E02011E6FDEEC4CF002012E5163
:10A14800020128190BE102012F510201291906E128
:10A158000201305102012A19D8B412D0020131513A
:10A1680002012B190BE10201325102012C1906E1FF
:10A178000201335102012D19D8B402D0000E120089
:10A18800A49EA38EF28C010E12000201346F000E01
:10A198000201366F000E356F4FD0F70E03019B2575
:10A1A8000201306F0201316BFF0E312312000301EF
:10A1B8009C510201336F326B020132510201351397
:10A1C800020133510201361303019D510201351377
:10A1D80035C230F236C231F2120003019E5102013B
:10A1E800336F326B020132510201351302013351D0
:10A1F8000201361303019F510201351335C230F2B3
:10A2080036C231F21200A0C330F20201316B1200E3
:10A21800A1C330F20201316B1200DEEC52F00201F0
:10A22800326F020132510201306F316B120055C397
:10A2380030F20201316B120002013451000AD8B425
:10A24800ACD7010AD8B4B3D7030AD8B4C6D7010A21
:10A25800D8B4D9D7070AD8B4DBD7010AD8B4DDD720
:10A26800030AD8B4E4D7000E0201316F000E306F34
:10A278001200F4EC5AF00009D8A4120002018BAFC6
:10A28800120000F0040E02019C19D8B40AD0DCECCC
:10A2980059F00009D8A405D07FEC5AF00009D8B4C9
:10A2A80013D0ECEC48F00009D8B40AD0000E020133
:10A2B8009C6F02018C8502018C93C2EC5AF004D089
:10A2C800040E02019C6F1200050E02019C19D8B4FD
:10A2D80008D039EC57F002010B6F1E0E02010B611A
:10A2E8002DD013EC4CF00009D8B408D0000E0201B0
:10A2F8009C6F02018C8502018C9320D0050E02010F
:10A308009C6F1200000E2FEC5AF0020E02019C6F97
:10A318001200020E2FEC5AF0030E02019C6F12007D
:10A32800030E2FEC5AF0010E02019C6F1200010E71
:10A338002FEC5AF0000E02019C6F120002019C5192
:10A34800000AD8B4DFD7010AD8B4F1D7030AD8B4C1
:10A35800E0D7010AD8A41200E3D702011B6F02015B
:10A368001B51010D780EF324D96E040EF420DA6E19
:10A378000A0EDF6E02011B51010D960EF324D96EF1
:10A38800040EF420DA6E000EDF6E02011B51010D7F
:10A39800B40EF324D96E040EF420DA6E000EDF6ECC
:10A3A80002011B51010DD20EF324D96E040EF420C4
:10A3B800DA6E000EDF6E02011B51010D000EF32450
:10A3C800D96E040EF420DA6E000EDF6E02011B5106
:10A3D800010D1E0EF324D96E040EF420DA6E000E61
:10A3E800DF6E02011B51010D3C0EF324D96E040EE1
:10A3F800F420DA6E000EDF6E02011B51010D5A0EB9
:10A40800F324D96E040EF420DA6E000EDF6E02011A
:10A418001B51020D000EF324D96E030EF420DA6EE0
:10A42800000EDE6E000EDD6E120002018CA316D047
:10A43800A9C237F2AAC238F241C239F242C23AF28C
:10A448000F0E02013B6F000E02013C6F000E02016D
:10A458003D6F000E02013E6FA6EC55F0000E0201A2
:10A46800826F000E0201816F1D0E0201826501D00C
:10A4780028D002018251020D000EF324D96E030E7A
:10A48800F420DA6EDE50DE10D8B418D00201825102
:10A49800020D000EF324D96E030EF420DA6E0201C9
:10A4A8008151020D450EF324E16E020EF420E26E96
:10A4B800DECFE6FFDDCFE5FF0201812B0201822B13
:10A4C800D3D702018C95A9C237F2AAC238F241C289
:10A4D80039F242C23AF2070E02013B6F0201815182
:10A4E800020DF3CF3CF2450E02013D6F020E020150
:10A4F8003E6FA6EC55F01200016E0150010D780E6A
:10A50800F324D96E040EF420DA6E0A0EDF6E0150C1
:10A51800010D960EF324D96E040EF420DA6E000EA7
:10A52800DF6E0150010DB40EF324D96E040EF42031
:10A53800DA6E000EDF6E0150010DD20EF324D96ED3
:10A54800040EF420DA6E000EDF6E0150010D000ECD
:10A55800F324D96E040EF420DA6E000EDF6E01507B
:10A56800010D1E0EF324D96E040EF420DA6E000ECF
:10A57800DF6E0150010D3C0EF324D96E040EF42059
:10A58800DA6E000EDF6E0150010D5A0EF324D96EFB
:10A59800040EF420DA6E000EDF6E0150020D000E7C
:10A5A800F324D96E030EF420DA6E000EDE6E000E70
:10A5B800DD6E1200000E02012E6F000E2D6F0301DA
:10A5C8009B51FE0F02012F6F9B0E02011B6F030EA2
:10A5D80002011C6F2FC21DF202011E6B8AEC4DF0A6
:10A5E8001BC22BF21CC22CF202012F51010D9B0E33
:10A5F800F324D96E030EF420DA6EDF500201286FBF
:10A608000201285102012A6F296B02012951020116
:10A618002D1302012A5102012E1302012F510201AA
:10A62800286F296B010E02012827000E29239B0E93
:10A6380002012825D96E030E02012921DA6EDF50A6
:10A6480002012A6F02012A5102012D1302012D5124
:10A6580002012B1908E102012E5102012C19D8A47C
:10A6680002D0010E1200000E1200FB0E02011C6F38
:10A67800FE0E1B6FD8EC5AF00201616F02016151A6
:10A688000201916F926BFB0E02011C6F1B69D8ECE3
:10A698005AF00201616F020161510201636F626B3E
:10A6A80002016251020191130201635102019213E6
:10A6B800FB0E02011C6FFD0E1B6FD8EC5AF0020155
:10A6C800616F020161510201A96FAA6BFB0E0201C1
:10A6D8001C6FFE0E1B6FD8EC5AF00201616F02016D
:10A6E80061510201636F626B020162510201A91399
:10A6F800020163510201AA13020191290EE102012C
:10A708009229D8A41200000E0201926F010E916FD7
:10A71800C5EC59F01DEC58F0120012001FC24CF3A2
:10A728001DC223F21EC224F21FC225F224C223F244
:10A7380025C224F20201256B0201235103014D6F4A
:10A748001DC24EF322C24FF320C223F221C224F2CB
:10A7580022C225F224C223F225C224F20201256B6B
:10A76800020123510301506F20C251F38C848B9650
:10A7780083BAFED7728A000E0201276F050E020106
:10A78800276501D012D075CF26F202012751010D9D
:10A798004C0EF324D96E030EF420DA6EDF50756E7A
:10A7A80073A0FED70201272BE9D78C948B86729A67
:10A7B800000E02011C6F140E1B6F70EC5AF0120091
:10A7C800F4EC5AF00009D8A4120002018A950A5044
:10A7D8000B6E0C6A0D6A09500E6E0F6A050ED89042
:10A7E8000E360F36E82EFBD707C010F008C011F060
:10A7F800126A11C012F010C011F0106A0E50101039
:10A80800136E0F501110146E000E0FBEFF0E1210B3
:10A81800156E0B50131003013C6F0C5014100301FC
:10A828003D6F0D50151003013E6F0AC001F0026A1A
:10A838007DEC59F00B6E09C001F0026A7DEC59F00D
:10A848000C6E07C001F008C002F07DEC59F00C183E
:10A858000B180009D8B402D003013E8F010E020183
:10A86800A36F120026C21BF227C21CF283EC56F01B
:10A878001BC22FF21CC230F20201285102012F5DC7
:10A8880002013051800A02012A6F02012951800A0F
:10A8980002012A59D8A02AD0F60E02012A6FFF0E0B
:10A8A80002012B6F2FC22CF230C22DF202012A5165
:10A8B80002012C2702012B5102012D2302012C51E8
:10A8C8000201285D02012951800A02012E6F02014E
:10A8D8002D51800A02012E59D8A008D0F50E020188
:10A8E8002F190EE102013029D8A40AD026C220F27D
:10A8F80027C221F228C222F2E0EC55F0010E120024
:10A90800000E1200A4C23EF2010EC9EC50F030C293
:10A9180037F231C238F2020EC9EC50F030C239F2C7
:10A9280031C23AF2030EC9EC50F002013051020173
:10A93800A46F040EC9EC50F00201305102013D6FC2
:10A94800000EC9EC50F00201305102013F6FFCECDF
:10A958005AF01BC23BF21CC23CF237C228F238C282
:10A9680029F239C22AF23AC22BF23DC22CF23FC276
:10A978002DF23BC22EF23CC22FF2C9EC4FF011EC83
:10A988005BF00009D8B4FBD729EC5BF00009D8A428
:10A99800F6D78EEC5AF03EC2A4F21200A3BE02D043
:10A9A800A49E120075CF01F0000E756E0201A8A1D9
:10A9B8001AD00201A6510201A75DD8B006D0020143
:10A9C800A891729AA49E8B8612000201A651010DCD
:10A9D8004C0EF324D96E030EF420DA6EDF50756E38
:10A9E8000201A62B25D00201A8A322D00201A5515D
:10A9F800010D9B0EF324D96E030EF420DA6E01C00C
:10AA0800DFFF0201A52B0201A55103019B19D8A460
:10AA18000FD0310E0301A119D8A403D0090E0301E8
:10AA28009B6F0201A8850201A893729AA49E120046
:10AA3800A49E120002011B07D8A01C07000EF86E86
:10AA480002011C51F76E1BC2F6FF020120EE3FF017
:10AA58001D51D9261E51DA22DF50F56E0D00000E69
:10AA68000201206F000E1F6F020120BF08D00201F3
:10AA780020511CE13F0E02011F5DD8B017D0020122
:10AA88001F5102011D25D96E0201205102011E210C
:10AA9800DA6EDF50F56E0D0002011F4B202B02010C
:10AAA80020BFEDD70201205101E1E4D7A684F29E30
:10AAB800550EA76EAA0EA76EA682A6B2FED7F28E74
:10AAC800A69412009B8CD3508F0B6009D36E960E00
:10AAD800CB6ECA50870B3809CA6E9E929D82CA8473
:10AAE800F28CF28EC150C70B0809C16EC150F80B29
:10AAF8000609C16EC18EC280928A939E939C8A9EDB
:10AB08008A9C929C93969490899C8A968B90949810
:10AB18008B98959E8C9E929A899A02018C81929428
:10AB2800899493948A8495928C8293820F01499593
:10AB380092820F01489396820F01489D96908D90BE
:10AB48008C8E1200020193A102D002013B8F37C202
:10AB580028F238C229F239C22AF23AC22BF23BC291
:10AB68002CF23CC22DF23DC22EF23EC22FF2C9ECAD
:10AB78004FF0060EC9EC50F030C23FF231C240F23D
:10AB880037C220F238C221F23FC222F2E0EC55F07F
:10AB9800020193A302D0020193B1F9EC58F011EC31
:10ABA8005BF00009D8B4FBD729EC5BF00009D8A406
:10ABB800F6D78EEC5AF0120020C21BF221C21CF20A
:10ABC800D7EC57F00201256F02012529D8A40ED031
:10ABD800A0EC58F00201256F02012529D8A406D05F
:10ABE800B2EC57F0A0EC58F00201256F0201255194
:10ABF800020DC20EF324D96E050EF420DA6E20C2BF
:10AC0800DEFF21C2DDFF020122510201236F246B06
:10AC180002012551020D840EF324D96E050EF4208D
:10AC2800DA6E23C2DEFF24C2DDFF120002011B6FB1
:10AC380002011B51020D000EF324D96E060EF420FA
:10AC4800DA6E000EDE6E000EDD6E02011B51020D83
:10AC58003E0EF324D96E060EF420DA6E000EDE6E78
:10AC6800000EDD6E02011B51020D7C0EF324D96E1D
:10AC7800060EF420DA6E000EDE6E000EDD6E0201A6
:10AC88001B51020DBA0EF324D96E060EF420DA6EAB
:10AC9800000EDE6E000EDD6E1200016E0150020D18
:10ACA800000EF324D96E060EF420DA6E000EDE6E66
:10ACB800000EDD6E0150020D3E0EF324D96E060E15
:10ACC800F420DA6E000EDE6E000EDD6E0150020D0D
:10ACD8007C0EF324D96E060EF420DA6E000EDE6EBA
:10ACE800000EDD6E0150020DBA0EF324D96E060E69
:10ACF800F420DA6E000EDE6E000EDD6E1200000E1D
:10AD080002011F6F1E0E02011F6501D023D0020130
:10AD18001F51020DC20EF324D96E050EF420DA6E0F
:10AD280002011B51DE1813E102011C51DE18D8A4E0
:10AD38000ED002011F51020D840EF324D96E050EA8
:10AD4800F420DA6EDECF1BF2DDCF1CF21200020116
:10AD58001F2BD8D7FF0E02011C6FF50E1B6F1200B8
:10AD68000301474B482B010E3FEC58F001C004F09B
:10AD780002C005F06D0E045C020E0558D8A003D081
:10AD88000301454B462B050E0301471903014811E2
:10AD9800D8A412008B988C820301475103014519EE
:10ADA80009E10301485103014619D8A403D002015F
:10ADB8008A89120002018A991200000E0201626F4C
:10ADC800000E616F020162BF08D00201625113E1F7
:10ADD800400E0201615DD8B00ED0210E020161253E
:10ADE800D96E020E02016221DA6E010EDF6E0201D7
:10ADF800614B622BE7D73C0E02011C6F000E1B6FE4
:10AE0800210E02011D6F020E02011E6F1EEC55F08D
:10AE1800120096EC59F0186EFF0E0301E615166E37
:10AE28007F0E0301E715176E1850020D000EF3246C
:10AE3800D96E030EF420DA6E16C0DEFF17C0DDFFF0
:10AE48001850010D780EF324D96E040EF420DA6E32
:10AE5800000EDF6E16C007F017C008F0020E096E6C
:10AE680018280A6EE4EC53F01200010E02019B6FE1
:10AE78001D0E02019B6501D020D002019B51010DDE
:10AE8800780EF324D96E040EF420DA6E0A0EDE185A
:10AE9800D8B410D002019B51020D000EF324D96ED4
:10AEA800030EF420DA6EDE50DE10D8A403D00201BF
:10AEB8009B51120002019B2BDBD702019B51120010
:10AEC800000EF86E02011C51F76E1BC2F6FF000E51
:10AED8000201206F000E1F6F020120BF08D002017F
:10AEE800205116E1400E02011F5DD8B01200090082
:10AEF80002011F5102011D25D96E020120510201D4
:10AF08001E21DA6EF5CFDFFF02011F4B202BE4D79D
:10AF1800120006EE00F0F80EEE6AE806FDE105EE16
:10AF280084F07C0EEE6AE806FDE104EE00F0F00E17
:10AF3800EE6AE806FDE103EE00F0E80EEE6AE806C8
:10AF4800FDE102EE8AF0250EEE6AE806FDE11E90AC
:10AF58001E92000EF86E00019CEF5AF0000E0201DE
:10AF68001B6F1E0E02011B6501D0120002011B514E
:10AF7800020DC20EF324D96E050EF420DA6E000E0F
:10AF8800DE6E000EDD6E02011B51020D840EF324ED
:10AF9800D96E050EF420DA6E000EDE6E000EDD6E40
:10AFA80002011B2BDED7000E02011F6F02011F5189
:10AFB800800A610FD8B018D002011F51020DC20ECD
:10AFC800F324D96E050EF420DA6E02011B51DE1847
:10AFD80008E102011C51DE18D8A403D002011F5158
:10AFE800120002011F2BE2D7FF0E120002011D6F93
:10AFF80002011D510201D8A409D002018CBD06D05E
:10B008008C9E61EC5AF052EC5AF0120002018A83CD
:10B0180002018C9B02018B8F02018AAB07D00201CF
:10B028008AAB05D00E0E0201A16501D08C8E8A96DE
:10B038001200FB0E02011C6FFE0E1B6F31EC59F063
:10B04800FB0E02011C6FFE0E1B6F91C21DF2020166
:10B05800925102011E6F60EC58F0FB0E02011C6F4A
:10B06800FD0E1B6FA9C21DF20201AA5102011E6F3B
:10B0780060EC58F01200036E0DD0C250C30B1809D3
:10B0880007D0C250C30B280903D0C250C30B040910
:10B09800C26E0AD00350000AD8B4EFD7010AD8B458
:10B0A800F0D7030AD8B4F1D7C282C2B2FED7C3CF51
:10B0B80001F0C4CF02F01200000EF2BE010E020130
:10B0C8001F6FF29E000EF86E02011C51F76E1BC234
:10B0D800F6FF1DC2F5FF0D001EC2F5FF0C00A68A83
:10B0E800A68417EC5BF0A69AA69402011F510201F0
:10B0F800D8B41200F28E1200036E0350D8A409D0FF
:10B1080002018CBD06D08C9ECDEC5AF0C2EC5AF0F0
:10B11800120002018A8302018C9B02018B8F0201BB
:10B128008AAB07D002018AAB05D00E0E0201A165D9
:10B1380001D08C8E8A961200000E02011D6F02014A
:10B148001D51800A610FD8B013D002011D51020DA4
:10B15800C20EF324D96E050EF420DA6EDE50DE102E
:10B16800D8A403D002011D51120002011D2BE7D7FC
:10B17800FF0E1200E2EC5AF0170E0E01FC6F160ECD
:10B188000E01FD6F0A0E0E01D56FEBEC5AF0958695
:10B198009388F28695948C94958C95988C9894962F
:10B1A8008B8694840F014987958A94928B9212001A
:10B1B800FB0E026EFE0E016EF3EC59F0FB0E026EF2
:10B1C800FE0E016E91C203F002019251046E15EC5D
:10B1D80059F0FB0E026EFD0E016EA9C203F00201CA
:10B1E800AA51046E15EC59F01200A9C21BF2AAC2AA
:10B1F8001CF2BEEC4EF0FF0E02011B1502012A6F75
:10B20800030E02011C1502012B6F2AC21BF22BC26E
:10B218001CF270EC5AF011EC5BF00009D8A4120093
:10B22800F4D7000EF2BE010E056EF29E000EF86E07
:10B238000250F76E01C0F6FF03C0F5FF0D0004C011
:10B24800F5FF0C00A68AA68423EC5BF0A69AA694C8
:10B258000550D8B41200F28E1200000EF2BE010E94
:10B2680002011D6FF29E000EF86E02011C51FC0BCC
:10B27800F76E000EF86EA684A68817EC5BF0A6940D
:10B2880002011D510201D8B41200F28E120002010F
:10B298001B6F00F0060E02011B19D8A406D002018C
:10B2A8008C9102018C99898A1200050E02011B19E2
:10B2B800D8A4120002018C8102018C89899A12009B
:10B2C8008D80000E3FEC58F001C004F002C005F07C
:10B2D8008D9000F0055004E1510E045CD8A006D012
:10B2E800000E0201A16F02018A9B120002018A8BE3
:10B2F800120001C003F002C004F0000E066E000E3A
:10B30800056E0F0E066401D007D003B0052AD89049
:10B3180004320332062AF5D705A002D0010E120026
:10B32800000E1200010E036E1D0E036401D010D032
:10B338000350020D000EF324D96E030EF420DA6ECA
:10B34800DE50DE10D8A402D003501200032AECD736
:10B3580003501200A9C237F2AAC238F241C239F228
:10B3680042C23AF2290E02013B6F000E02013C6F05
:10B37800000E02013D6F000E02013E6FA6EC55F073
:10B388001200400E02011C6F000E1B6F210E0201FD
:10B398001D6F020E02011E6F64EC57F0020122516C
:10B3A8000201AA6FA96B020121510201A91312001F
:10B3B800000E016E1B0E016401D00FD00150010D6B
:10B3C800B40EF324D96E040EF420DA6E0401DFA65D
:10B3D80002D0010E1200012AEDD7000E1200000E55
:10B3E800F2BE010E036EF29E000EF86E0250FC0BC8
:10B3F800F76E000EF86EA684A68823EC5BF0A69480
:10B408000350D8B41200F28E1200000E0201346FFD
:10B41800040E0201346501D012004BEC50F0000913
:10B42800D8B403D002018A8312000201342BF0D76A
:10B4380001500302F3CF05F0F4CF06F001500402E7
:10B44800F350062602500302F350062605C001F009
:10B4580006C002F01200016EF4EC5AF00009D8A4FC
:10B46800120002018A85015003013C6F3D6B3E6B5F
:10B4780001C0A2F2010E0201A36F120091C207F0EF
:10B4880092C208F0010E096E000E0A6EE4EC53F049
:10B498000201914B922BDCEC58F01200000E0201D5
:10B4A8001C6F1E0E02011C6501D0120002011C5106
:10B4B8001AEC56F002011C2BF4D7000E02011C6F87
:10B4C8001D0E02011C6501D0120002011C51B1ECD5
:10B4D80051F002011C2BF4D702D01DEC5BF00201E5
:10B4E8001B07D8A01C0702011B29F7E102011C2930
:10B4F800D8B41200F2D796EC59F0046E1D0E046011
:10B5080007D00A0E04019519D8B402D0010E120012
:10B51800000E12000201A8818B9683BAFED7728AA8
:10B5280075CF1BF24CC375FF010E0201A66F120006
:10B5380003EC5BF066EC55F009EC5AF031EC5BF08B
:10B5480002018B8F23EC4AF0FDD7000E0301466FF2
:10B55800000E456F000E0301486F000E476F8C9276
:10B568008B8812000201A8830201A89575CF1BF2EF
:10B57800000E756E000E0201A56F1200000E026E1D
:10B588001E0E026401D01200025051EC56F0022A3D
:10B59800F7D7000E026E1D0E026401D01200025091
:10B5A80080EC52F0022AF7D7000EF86E02011C5107
:10B5B800F76E1BC2F6FF0800F5501200F29E550EFA
:10B5C800A76EAA0EA76E0E01BF91F28E1200F29E10
:10B5D800550EA76EAA0EA76E0E01BF81F28E12003D
:10B5E8000201A351D8B402D0010E1200000E1200BD
:10B5F800A20E02011B6F030E02011C6F120061EC08
:10B608005AF039EC53F0B2EC57F012000201A8A33B
:10B61800120081B21200728A120082A402D0000EB7
:10B628001200010E1200550EA76EAA0EA76EA68272
:10B63800120002018AA1FDD702018A911200550E5B
:10B64800A76EAA0EA76EA68212000201A851010BCE
:10B6580012000201A851040B12008A948984120076
:0CB668008A948984120089948A8412005C
:08FFF800BCF4DAFFFDFABFF3CF
:00000001FF
